:020000040800F2
:10000000401A00200102000861450008694200080A
:1000100045450008F5200008D14C0008000000000C
:10002000000000000000000000000000BB460008C7
:1000300061250008000000006745000849480008E5
:100040001B0200081B0200081B0200081B0200081C
:100050001B0200081B0200081B0200081B0200080C
:100060001B0200081B0200081B0200081B020008FC
:100070001B0200081B0200081B0200081B020008EC
:100080001B0200081B0200081B0200081B020008DC
:100090001B0200081B0200081B0200081B020008CC
:1000A0001B0200081B0200081B0200081B020008BC
:1000B0001B0200081B0200081B0200081B020008AC
:1000C0001B0200081B0200081B0200081B0200089C
:1000D0001B020008B94C00081B020008C54C0008B0
:1000E0001B0200081B0200081B0200081B0200087C
:1000F0001B0200081B0200081B0200081B0200086C
:100100001B0200081B0200081B0200081B0200085B
:10011000D9490008554A00081B0200081B020008C4
:100120001B0200081B0200081B0200081B0200083B
:1001300000F002F800F054F80AA090E8000C8244A5
:100140008344AAF10107DA4501D100F049F8AFF282
:10015000090EBAE80F0013F0010F18BFFB1A43F0A5
:1001600001031847FC7400001C750000103A24BFFE
:1001700078C878C1FAD8520724BF30C830C144BF0C
:1001800004680C607047000000230024002500264E
:10019000103A28BF78C1FBD8520728BF30C148BFEA
:1001A0000B607047642900F0C181732900F0E98475
:1001B000002070471FB59DE8030000F023FC01F00C
:1001C0000FF804000020002106F0DCFA401C6060FB
:1001D0000020002106F0ECFAE0601FBD10B510BD54
:1001E00001F0EEF81146FFF7E5FF05F031FF01F0F1
:1001F0004FFB03B4FFF7F2FF03BC01F07FFB0000ED
:100200000948804709480047FEE7FEE7FEE7FEE7AA
:10021000FEE7FEE7FEE7FEE7FEE7FEE704480549E6
:10022000054A064B70470000CF480008310100081E
:1002300040060020401A00204016002040160020F2
:1002400070B5064600F0BEFB056806F10B0020F015
:100250000704B4429CBF002070BD2B466A68BAB147
:100260001068A04210D304F1080188423CBF5068D6
:10027000586007D35168101941601168091B01606B
:1002800058601460101D70BD13465268002AE7D1F3
:100290002146284600F0A2FB0028DED170BD70B5D3
:1002A0000446051F00F08EFB0068002C14BF446854
:1002B00070BD002C18BFAC423CBF20466468F8D328
:1002C00001680A18AA4218BF456003D12A6805468A
:1002D0001144016028684119A1421CBF6C6070BDC7
:1002E0006168696021680844286070BD70B50D467A
:1002F0000646041F00F066FBD0F800C0C5B1E6B1A9
:1003000005F10B0020F00703AB423CBF002070BD9D
:100310002068984238BFDCF8042013D3C11A08299A
:100320002FD3E01840F8041B2360FFF7B8FF28E044
:100330003046FFF7B4FF002070BD2846BDE870408E
:10034000FFF77EBF002A18BFA2423CBF9446526806
:10035000F8D30119914216D111680844984212D37A
:10036000C11A08293CBF2060506808D35168E018C2
:100370004160216812681144C91A01602360CCF8F9
:100380000400201D70BD181FFFF75AFF050007D09D
:1003900021680A1F211D00F04EFA201DFFF77FFF84
:1003A000284670BD53EA020C00F069802DE9F04B3D
:1003B0004FF00006002B1FBFB3FA83F503FA05F4D4
:1003C00024FA05F65E4012BF1643B2FA82F502FA2D
:1003D00005F4C5F120051EBF22FA05FC44EA0C0411
:1003E000203556EA044C4FEA144418BF641C4FF001
:1003F00000084FF00009904271EB030C39D300293B
:1004000019BFB1FA81F701FA07F6B0FA80F700FADE
:1004100007F6C7F120071EBF20FA07FC46EA0C06C4
:100420002037B6FBF4FCA7EB0507103F07F01F0BC6
:10043000CBF120060CFA0BFB2CFA06F644BFB346B0
:100440000026202FA4BF5E464FF0000B5BEA060C8F
:1004500008BF4FF0010B19EB0B09ABFB027C48EB1B
:100460000608C01B06FB02CC0BFB03CC71EB0C0196
:10047000C1E70B46024641464846BDE8F08B13B53E
:100480004FF000004FF00001AFF30080BDE81C40CA
:10049000704710B5044600F08DFA0068005DC00694
:1004A00002D504F1200010BD204610BD0FB41CB5CC
:1004B000084B06AA7B4469460090059800F037FB7C
:1004C00004460020694600F045FB20461CBC5DF850
:1004D00014FB00009D06000070B50C460546012A7D
:1004E00005D02878800600D5EA69002302E00123C0
:1004F00005E05B1C934202D2E05C0028F9D1A869B8
:10050000E618C01AA861286A184428622846AFF382
:10051000008004E0D5E9012114F8010B9047B442B2
:10052000F8D32846AFF3008070BD00002DE9F041FC
:100530000646002410687529314616A510D0AFF381
:100540000080002802DA404213A507E031688A07DC
:1005500001D512A502E0490704D511A5012401E047
:10056000AFF3008000210A2206F1240709E0B0FB66
:10057000F2FCB0FBF2F302FB1C003030785418465A
:10058000491C0028F3D123462A463046BDE8F041F5
:1005900000F06EBA000000002D0000002B000000EB
:1005A000200000002DE9F05F894604464FF0000A64
:1005B000DFF824B1FB44C0F820A02046E16888475A
:1005C00000287DD0252806D0D4E901219047206A53
:1005D000401C2062F1E700255F462046E16888471D
:1005E0002028064607DB312E05D2B81910F8200C5A
:1005F00008B10543F1E7A80701D525F00405C4F8C3
:100600001CA00027C4F818A02A2E09D0304604F0F8
:10061000E2FF38B304EB8708303EC8F8186019E0F1
:1006200059F8041B204604EB87029161E168884772
:10063000012F064618D1E069002820DA25F02005B0
:100640001DE0D8F8180000EB800006EB40003038C1
:10065000C8F818002046E1688847064604F0BBFF4A
:100660000028EED1012F0AD02E2E08D12046E168B5
:1006700088477F1C0646022F45F02005C4DBA06991
:10068000002803DA404245F00105A061E80701D0E7
:1006900025F01005A6B1A6F14100192802D8203690
:1006A00045F400654A463146204625604D46FFF731
:1006B00079FD60B1012807D0ED1D25F0070000E0AD
:1006C00007E000F1080978E705F1040975E730460D
:1006D0007AE7206ABDE8F09F0070000070B506461A
:1006E00000F074F90468054630460A22002100F043
:1006F0003BFD2C6070BD30B505460B462A4613F80D
:10070000014B12F8010B08B1A042F8D01CB100282F
:1007100002D06D1CF1E7284630BD40EA01030246D5
:1007200030B59B0710D14FF0013400E008C208C972
:100730001D1B9D4315EAC41FF8D013F0FF0102F8FA
:10074000011B0DD01B0AF8E711F8013B002B02F842
:10075000013B05D011F8013B002B02F8013BF3D11E
:1007600030BD10B5431C02E010F8011B71B18107C8
:10077000FAD14FF0013202C88C1A8C4314EAC2112C
:10078000F9D0C01A0A0603D0C01E10BDC01A10BD91
:100790000A0401D0801E10BD0902FCD0401E10BD0D
:1007A00040EA010370B59B072ED14FF00136042AB1
:1007B0002AD308C810C99D1B9D43121F15EAC615F0
:1007C00017D0D8B2E1B2401A50EA056110D198B200
:1007D000A1B2401A50EA05410AD123F07F4024F02B
:1007E0007F41401A50EA052102D1180EA0EB146097
:1007F00070BDA342DBD018BA21BA884201D90120CA
:1008000070BD4FF0FF3070BD0AB9002070BD10F808
:10081000013B11F8014B63B1A3420AD1521E08D02B
:1008200010F8013B11F8014B1BB1A34201D1521E3C
:10083000EDD1181B70BD10B5203AC0F00B80B1E8A7
:100840001850203AA0E81850B1E81850A0E8185005
:10085000BFF4F5AF5FEA027C24BFB1E81850A0E80E
:10086000185044BF18C918C0BDE810405FEA827C28
:1008700024BF51F8043B40F8043B08BF7047D2073F
:1008800028BF31F8023B48BF11F8012B28BF20F8E0
:10089000023B48BF00F8012B70474FF000020429CB
:1008A000C0F0128010F0030C00F01B80CCF1040C9F
:1008B000BCF1020F18BF00F8012BA8BF20F8022BD3
:1008C000A1EB0C0100F00DB85FEAC17C24BF00F879
:1008D000012B00F8012B48BF00F8012B70474FF0A7
:1008E000000200B5134694469646203922BFA0E880
:1008F0000C50A0E80C50B1F12001BFF4F7AF09078C
:1009000028BFA0E80C5048BF0CC05DF804EB89007C
:1009100028BF40F8042B08BF704748BF20F8022BBF
:1009200011F0804F18BF00F8012B70474FF0013CC9
:1009300050F8042B51F8043B9A4221D1A2EB0C034E
:10094000934313EACC1317D150F8042B51F8043B0E
:100950009A4215D1A2EB0C03934313EACC130BD1AB
:1009600050F8042B51F8043B9A4209D1A2EB0C0336
:10097000934313EACC13DBD04FF00000704700BF65
:10098000D01A01BAB1FA81F101F0180122FA01F08E
:10099000CB40C1F12001DBB2C0B2C01A2CFA01F386
:1009A000D11A914311EAC311E6D1704770477047DD
:1009B0007047000010B500F013FC001D10BD00BF13
:1009C000C55D000000487047E405002000487047FE
:1009D000DC050020704770477047704738B5044603
:1009E0000A4600206946AFF30080002808BF38BDE2
:1009F00002460099204600F0F7FB012038BD012097
:100A000000F0D6BCF8B5AFF30080054600200C46D8
:100A1000102000BF0646A819A0420DD932466946EB
:100A20000020AFF30080070008BF00F0C1FC009871
:100A3000A04218BF0546C419FFF7C4FF056007466A
:100A4000F01D20F007004619284600F00AF8B442CD
:100A500008BFF8BDA21B31463868BDE8F84000F079
:100A6000C3BB00210160C0E901107047102070472E
:100A70002DE9F0470D4699469246044600F12408B8
:100A80000168880604D5E06921F01001216000E0CA
:100A90000120A84201DD471B00E00027A1697A1967
:100AA00002EB0900081AA0612078C00602D4204693
:100AB000AFF30080002608E0D4E901211AF806000F
:100AC0009047206A401C761C20624E45F4DB20785B
:100AD000C0060AD52046AFF3008006E0D4E9012124
:100AE00030209047206A401C2062381EA7F1010781
:100AF000F4DC07E0D4E9012118F805009047206AEA
:100B0000401C2062281EA5F10105F3DC2046AFF34E
:100B100000802078000602D50220BDE8F087012081
:100B2000FBE7000001694A1C02610878704700B5C4
:100B30008FB0CDE901310021059105497944CDE916
:100B4000031011466846FFF72DFD0FB000BD0000F1
:100B5000E5FFFFFF0A6802F8010B0A60704710B555
:100B6000436913B1AFF3008001E0FFF7B5FC01204A
:100B700010BD127800F124010A7000224A7001228F
:100B8000EDE711684FF0FF32E9E700002DE9FF4F74
:100B900006468BB00878FF2806D0491C2D2805D0C2
:100BA00000244FF0000908E000200CE00124F8E7E1
:100BB00009EB8903491C00EB43090878FF28F7D1AA
:100BC00014B1C9F100008146107800252C46AA46D0
:100BD00029462D2801D02B2804D1521C2D2813D0B2
:100BE000002082468B461078FF280FD04FF0000C73
:100BF0000A21521CA5FB017804FB018105FB0C11A5
:100C0000C5194BEB0104EEE70120EAE70021084695
:100C10004FF00000BAF1000F02D000EB8000400856
:100C2000C0F38157012F01DD4FF0FF370E9955EAD0
:100C3000040009EB01080BD04FF0020918F5FA7F08
:100C400016DA4FEACA70002F706008DD012007E055
:100C50004FEACA70C6E900B00FB0BDE8F08F0020BF
:100C60003060FFF7B3FEC0F800901821084616E088
:100C7000B8F5FA7F18DD002F02DAF748784401E072
:100C8000F6487844D0E90010C6E9001040EACA707E
:100C90007060FFF79BFEC0F80090142108460FB06B
:100CA000BDE8F04F06F00FBB002108464FF00000F2
:100CB000B8F10001099002DAC7F1000200E03A46FB
:100CC00001DAC8F1000106A800F000FB06AB93E8CA
:100CD000070003AB83E8070044F23E005BEA04012F
:100CE0000090584604D144F21E012C465D46009106
:100CF000210C0904014306D10099240444EA154457
:100D00002D041039009104F07F41014306D1009970
:100D1000240244EA15642D020839009104F0704160
:100D2000014306D10099240144EA15742D01091FDD
:100D3000009104F04041014306D10099A40044EA27
:100D40009574AD00891E009104F00041084304D160
:100D500000986D196441401E00904FF001033A461F
:100D60006846B8F1000FCDE9014503A902DD01F0A5
:100D70008AF801E001F05DF8BAF1000F04460D4673
:100D800001D084F00044002108464FF0000009998A
:100D900040F2FF77484010F00C0F07D124F00040DC
:100DA000284303D0C4F30A50B84212D1FFF70EFE15
:100DB000C0F80090C4F30A50B8420AD1A848784459
:100DC000D0E90010C6E9001004F00041084370604B
:100DD00042E7C6E900543FE72DE9FF4F1F464FF0B9
:100DE000000A4FF0FF38454691B0D7E90146CDF8EB
:100DF0003CA000F0F5F9C0680168405C1090B9694A
:100E000012986D1C8847396A814688470028F6D1B8
:100E1000B9F1FF3F0AD0002E24F4D06411DDB9F1FE
:100E20002B0F08D0B9F12D0F0BD102E0404615B0C1
:100E300013E744F48064B96912986D1C8847761EE4
:100E40008146600504A901D52D2000E02B20002E4D
:100E500001F1010B0DF130088DF810003FDDB9F103
:100E6000690F08D0B9F1490F05D0B9F16E0F02D062
:100E7000B9F14E0F1CD13B4601A8009580E8500205
:100E8000DDE912126FF0020006F084FAC11CCED127
:100E90000EE0B96912986D1C884781461398761E3A
:100EA00044F4007405600F98401C002E0F9016DD6E
:100EB000B9F1300FEDD0B9F1780F02D0B9F1580F78
:100EC0000DD10F9801280AD13B46CDE90054DDE948
:100ED0001212001F029606F05BFAC11CA7D11099EE
:100EE00089453ED144F0800406E01399681CAAF1BC
:100EF000010A44F400740860B9696D1C1298761EEA
:100F0000884730288146F0D02BE01099894505D1DB
:100F1000200603D4761E44F0800418E0484604F00E
:100F20005AFB08B3761E0DF123018B4544F400747F
:100F300008D2A9F130000BF8010B200607D5AAF161
:100F4000010003E0200602D40AF101008246A00558
:100F500002D51399681C0860B96912986D1C8847FE
:100F60008146002ED1DC53E0002E51DDB9F1650F32
:100F700002D0B9F1450F4BD1A00549D5B9696D1C17
:100F80001298761E24F440748847002E81460CDDAA
:100F90002B2804D0B9F12D0F07D144F48074B9691E
:100FA00012986D1C8847761E8146E00501D52D21DB
:100FB00000E02B2108F8011BCDF8008021E0761E0F
:100FC0000DF13901884544F400740CD2A9F13000C8
:100FD00010F0FF0088F8000002D10099884509D977
:100FE00008F1010806E0E00501D51E4801E042F2E3
:100FF0000F708246B96912986D1C88478146139814
:101000000560002E04DD484604F0E5FA0028D6D13C
:10101000F96912988847FF2053468BF8000088F83A
:10102000000000200A900B9004AA0CA90AA8FFF760
:10103000ADFDA00502D46FF00100F8E614F0240F16
:1010400012D0E0071CD13868DDE90A12031D3B60AD
:101050000068C0E9001213E0086A0000FA690000A5
:10106000BE680000F1D8FFFF0AA9684603F044FFFC
:10107000E00705D13868009A011D396000680260F8
:101080002846D4E6426842B1016811F8013B23B119
:10109000521EC0E90012184670470121C160881E27
:1010A000704742685AB1C368016843B983688B428C
:1010B00005D0491E521CC0E90012002070474FF0B5
:1010C000FF3070470FB4002300B589B00CA9009120
:1010D0000B99CB60214B7B440693214B7B440793B8
:1010E00004236FF00042CDE901321E4A7A446B4678
:1010F00008920246002006F049F909B05DF814FB99
:1011000070B506464FF0FF3015460C46324686B0A5
:101110000091CDE9010169460020049004A8FFF781
:10112000D1FF02460498211825B108B1084600E015
:1011300020462860049800280DD0002A02DD00987F
:10114000884208D03246081B69460094CDE9010464
:1011500004A8FFF7B7FF06B070BD0000ABFFFFFFAC
:10116000C3FFFFFF2D0100002DE9F04791460F4618
:1011700080460446002614F8015B2DB1FFF71AFCE7
:101180000068405DC007F6D12B2D02D02D2D18D060
:10119000641E4A463946204600F049F827B13968AE
:1011A000A14201D1C7F800804FF0020471050BD5B0
:1011B0004042002803DDFFF709FC0460A007BDE8FA
:1011C000F08746F48066E4E70028F8DAFFF7FEFBD4
:1011D00004606FF00040F2E700487047DC05002033
:1011E00000487047FC050020034640688C460028F4
:1011F00018BF88423CBF03464068F8D318681844BB
:10120000884207D00CF1030020F00700001D411AAE
:10121000521A0146081D0A60FFF741B810B504468E
:10122000FFF7C8FB0068005D00F0010010BD2DE96C
:10123000F05F824615468B4600270AF10104B94645
:101240000078302801D09DB113E014F8010B01277C
:10125000782803D0582801D045B10AE00DB1102DEF
:1012600007D1002714F8010B102502E0082500E043
:101270000A250026B0460EE005FB080005FB06F136
:1012800001271FFA80F801EB1046B6F5803F00D326
:10129000B94614F8010B294600F0C2F80028EBDA31
:1012A000BBF1000F05D00FB1641E00E05446CBF82F
:1012B0000040B9F1000F06D0FFF788FB0221016062
:1012C000C81EBDE8F09F48EA0640FAE72DE9F0475E
:1012D000814616468AB0354878440DC88DE80D0021
:1012E00032487844801C03AC0DC884E80D0041F6F8
:1012F0009B300844372190FBF1F290FBF1F5A5F10A
:10130000800501FB12041B3C02D56442012000E071
:101310000020DFF898A080460027FA44AAF1BE0A10
:101320000EE0E0070AD03246684607EB470101238A
:101330000AEB810100F092FD8DE8070064107F1C2C
:10134000002CEED1194F7F44AE3F19E0E80715D0CD
:1013500007EB04100DF1180A90E80E008AE80E0061
:10136000C068F04201D1981908903246012306A9BD
:1013700003A800F073FD03AB83E807006D10641C45
:10138000002DE3D14FF0010332466946B8F1000F5A
:1013900003A802D000F038FD01E000F05FFDC9E9CC
:1013A0000001C9F808200AB0BDE8F0876C630000AE
:1013B00010B500F07BFABDE8104000F072BA70473B
:1013C0007546FFF709FFAE4605006946534620F013
:1013D0000700854618B020B5FEF720FFBDE8204085
:1013E0004FF000064FF000074FF000084FF0000BE1
:1013F00021F00701AC46ACE8C009ACE8C009ACE894
:10140000C009ACE8C0098D46704710B5FFF7DEFA99
:10141000006810BD10B50446FFF7D8FA046010BD8F
:101420003A2800D2303820F02002412A01D3A2F11C
:101430003700884201D34FF0FF3070472DE9FF4F4E
:101440001F464FF03C0987B04FF00042DDE9141011
:1014500001F10108DDF858A002EA40500390002095
:1014600005908346054604460490B969461E0898CF
:101470008847AAF1010A0290BAF1000F3BDD0298F9
:101480002E2815D01021FFF7CBFF00282EDB4FF0C0
:10149000010B0599014317D0B9F1000F0BDB4A4648
:1014A000C11700F031FA05430C43A9F1040905E026
:1014B000012004900BE008B145F0010501200590E2
:1014C000049820B9361D02E0049800B1361FB969AE
:1014D000089808F101088847BBF1000FAAF1010A3A
:1014E0000290C9D00999C1F80080C5E70298702818
:1014F00008D0502806D0F96908988847BBF1000F3A
:1015000014D04FE0002002900120BBF1000F0490A6
:1015100009D0B969089808F101088847AAF10109BA
:10152000B9F1000F07DCF969089888476FF00100EE
:101530000BB0BDE8F08F2B2804D02D280CD14FF034
:10154000FF300490B969089808F101088847A9F1AB
:101550000109B9F1000FE6DD411CE4D00A21FFF7D3
:101560005FFF0028DFDB029908F1010801EB810130
:1015700000EB41000290B969089888470A21FFF7FB
:101580004FFF099AA9F10109B9F1000FC2F80080D3
:1015900001DD0028E7DAF96908988847049902987C
:1015A00000FB016655EA040004D004F04041090044
:1015B00002D006E0039898E0A40044EA9574AD00D8
:1015C000B61E04F00041080002D16D196441761E78
:1015D000159810F0240F03D04FF00B095C4803E07E
:1015E0004FF028096FF07D008246564507DAAAEBD6
:1015F00006018944B9F1410F01DD4FF04109012095
:101600000021A9F1010200F07FF9024628400B46B3
:101610002140084301D0012100E00021501E029129
:1016200043F1FF3128402140084301D0012000E070
:1016300000200299834651EA0B014FD00021084651
:101640004FF00000039900F4400039B100EB800036
:101650004FF4400100EBD07001EA600080150128D2
:1016600002DD4FF0FF3000E013D0401C36D002986E
:1016700060B3BBF1000F0CD14A460120002100F0FD
:1016800043F928402140084301D0012000E0002018
:10169000E0B101204A46002100F036F90346401926
:1016A0000A4661412D1A8C4111D3B9F1400F09DD71
:1016B000159810F0240F02D0AAF1340603E0AAF125
:1016C000170600E0761C00254FF0004406E05B1E84
:1016D00042F1FF3220EA030521EA0204CAF10100C7
:1016E000B04206DA1B49039808430190002000909D
:1016F0000EE0039AC4F3D321E80A0A43164940EAEC
:1017000044500A433146CDE90002684603F05AFCD2
:10171000159810F0240F0BD01598C00715D1386814
:10172000DDE90012031D3B600068C0E900120CE017
:1017300002A8694603F0E0FB1598C00705D1386898
:10174000029A011D3960006802604046F0E6000020
:1017500002FCFFFF0000F07F0000F03F2DE9FF4F8B
:1017600092461D4685B04FF00041DDE9124BDDE9A0
:1017700014727F1E01EA4B50414940F0FF4940EA94
:101780000108002122F020004928049102D04E28AF
:1017900028D04CE03BA0012607C88DE80700A969C6
:1017A0000698641C88477F1E014606D41DF8060073
:1017B00018B121F0200181420BD0E96906988847D1
:1017C000032E34D0082E32D06FF0010009B0BDE8EE
:1017D000F08F761C032E01D0082EE0D1601CCAF8D1
:1017E0000000DCE7A9690698641C88477F1E2AD49C
:1017F00020F02000412826D1A9690698641C88475A
:101800007F1E20D420F020004E281CD1A969069804
:10181000641C88477F1E48F4002849F48009CAF8F0
:10182000004001D4282806D0E969069888475FEA75
:10183000CB7012D022E0A9690698641C88477F1EED
:1018400001D4002803DAE96906988847BCE729280B
:10185000F1D1641CCAF80040E9E71BF0240F07D05F
:1018600028680499031D2B600068C0E9001805E092
:101870002868021D2A600068C0F800902046A5E78D
:101880000000F07F494E46494E495459000000007F
:1018900010B50446AFF300802046BDE81040FEF7C7
:1018A000A8BC002801D000F029B8704710B5012865
:1018B00005D0002103A000F03AF8012010BD09A1D5
:1018C000F8E7000053494752544D454D3A204F75B3
:1018D00074206F662068656170206D656D6F727928
:1018E000000000003A2048656170206D656D6F72E0
:1018F0007920636F727275707465640001491820F5
:10190000ABBEFEE726000200B2F120030AD5C2F109
:10191000200301FA02F120FA03F300FA02F041EA8F
:101920000301704700FA03F14FF00000704770B5F3
:1019300005460C460A2000E06D1C00F011F835B198
:1019400028780028F8D102E0641C00F009F814B1EE
:1019500020780028F8D1BDE870400A20AFF300805D
:1019600008B569468DF800000320ABBE08BD20F025
:101970007F4C80EA030023F07F47ACEB070303F5BD
:101980007C5300F0004003F1FF032DE980494FEA4A
:10199000154B09B44FEA144325EA0B4E24EA0348D9
:1019A0000FF2042606EB132749083E785FEA32025D
:1019B00003FB0667C7F5000707FB06F64FEA543737
:1019C0004FEAD64606F1020607FB066CCCF1005C36
:1019D0004FEA1C472CEA074C07FB06F40CFB06F504
:1019E00004EB15464FEA961634BF00204FF0004036
:1019F0004FEAD13706FB07FC4FEA1C4C0CFB0BF7F8
:101A0000D21B03FB0CF761EB07010CFB0EF7B0EBED
:101A1000074072EB17420CFB08F734BFA2EB0742FA
:101A2000B2EB074261EB17414FEA0C444FEA9107D2
:101A300006FB07FC4FEA1C4C0CFB0BF7B0EBC74056
:101A400072EB573203FB0CF734BFA2EBC742B2EB89
:101A5000C74261EB57310CFB0EF7B0EBC70072EBDE
:101A600057720CFB08F734BFA2EBC702B2EBC702F8
:101A700061EB5771039F4FEA816141EA921104EBD8
:101A8000CC044FEAD1374FEA826206FB07FC42EAF8
:101A900090124FEA80604FEA1C4C0CFB0BF7D21BF4
:101AA00003FB0CF761EB07010CFB0EF7B0EB0740F3
:101AB00072EB17420CFB08F734BFA2EB0742B2EB04
:101AC000074261EB17414FEA8C554FEA910704EB4F
:101AD0009C2406FB07FC4FEA1C4C0CFB0BF7B0EBFD
:101AE000C74072EB573203FB0CF734BFA2EBC7427F
:101AF000B2EBC74261EB57310CFB0EF7B0EBC700FE
:101B000072EB57720CFB08F734BFA2EBC702B2EBC3
:101B1000C70261EB577115EB4C254FEA816141EA31
:101B200092114FEA82624FEAD13742EA901206FBE5
:101B300007FC44F100044FEA80604FEA1C4C0CFBA8
:101B40000BF7D21B03FB0CF761EB07010CFB0EF745
:101B5000B0EB074072EB17420CFB08F734BFA2EB67
:101B60000742B2EB074261EB174115EB1C154FEA38
:101B7000813141EA92414FEA823242EA90424FEA91
:101B800080304FEA0C7644F1000448EA03434EEA01
:101B90000B484FF0000EB2EB080C71EB030724BFAB
:101BA000624639464EEB0E0E4FF0000B00185241C4
:101BB00049414BEB0B0BB2EB080C71EB03077BF1CC
:101BC000000B24BF624639464EEB0E0E4FF0000B61
:101BD0000018524149414BEB0B0BB2EB080C71EB77
:101BE00003077BF1000B24BF624639464EEB0E0E15
:101BF00051EA020718BF46F0010616EB0E7655F1C2
:101C0000000254F1000103D5BDE88901BDE8008858
:101C1000BDE88901BDE80048B619524141EB010118
:101C2000A3F10103704780807F7E7D7C7B7A797889
:101C3000777676757473727171706F6E6E6D6C6C91
:101C40006B6A6A6968686766666564646363626133
:101C50006160605F5F5E5E5D5D5C5C5B5B5A5A59B4
:101C60005958585757565655555554545353525220
:101C70005251515050504F4F4F4E4E4D4D4D4C4C78
:101C80004C4B4B4B4A4A4A494949484848474747C1
:101C900047464646454545444444444343434342FE
:101CA000424242414141000046EA0646A3F57053D4
:101CB0004FEA164646EA42564FEAD22242EA4152DB
:101CC00010B54FEAD121A3F1010300F02FF820F065
:101CD000004000F1020C00F0004701EB00501146FB
:101CE000BCF5006F40EA070000D210BDBAF1000F4A
:101CF0000AD01CB503B44FF004004FF004014FF0BC
:101D000000000FBCBDE810404FF00001BBF1010F17
:101D1000B9BF04484FF0FF310348002140EA0700F3
:101D200010BD00BFFFFFEF7F0000F07F002B9C463F
:101D300030D477002BD01CB54FEA370703B44FF0EF
:101D400010004FF01001BAF1000F06D0BCF1000FE7
:101D5000DCBF40F0080040F008014FF000000FBC6D
:101D6000BDE810400BF1010BBBF1010F08BF5FEAAA
:101D7000170722BF12F1010211F101014FF00041DA
:101D800043F1000300F0004043EA00007047F9D33C
:101D90005708D0E746EA064613F1400F4FEA1646C9
:101DA0001FDD13F1200FDFBF16430A460021203349
:101DB0005B42BED0C3F1200746EA064602FA07F7A7
:101DC0004FEA164646EA0706C3F1200722FA03F255
:101DD00001FA07F721FA03F14FF0000342EA070284
:101DE000A7E746EA020646EA06464FEA164646EAEC
:101DF0000106BCBF46EA0646360C4FF000034FF022
:101E000000024FF0000194E72DE9804C9A4693467A
:101E100070B491E8380007C831EA400C48BF34EA92
:101E2000430C03D5FFF7A3FDFFF780FFF0BCBDE82F
:101E3000008C2DE9804C9A46934670B491E83800A6
:101E400007C831EA400C48BF34EA430C03D5FFF71A
:101E50008EFDFFF729FFF0BCBDE8008C2DE9804C1A
:101E60009A46934670B491E8380007C810F0804F46
:101E700008BF13F0804F03D100F01AF8FFF756FFA8
:101E8000F0BCBDE8008C2DE9804C9A46934670B4B6
:101E900091E8380007C810F0804F08BF13F0804F5A
:101EA00003D100F005F8FFF7FFFEF0BCBDE8008CA1
:101EB00020F07F4780EA030023F07F4C07EB0C0300
:101EC000A3F57C5300F00040A3F1FE0392F0000F55
:101ED00000F0B38095F0000F00F077802DE9014904
:101EE0004FEA11404FEA144621EA004800FB06FC85
:101EF00024EA064708FB06F607FB08F800FB07F78D
:101F000018EB06484CEB164C4FEA124B18EB0748FF
:101F10004FEA15464CEB174022EA0B4E0BFB06FC32
:101F200025EA06470EFB06F607FB0EFE0BFB07F73E
:101F30001EEB064E4CEB164C4FF000061EEB074E08
:101F40004CEB174B18EB0B0840F1000018EB0E0B95
:101F500058EB000840F100008F1A4FF000013CBF21
:101F6000C943661B14BFB5EB040C00213CBFC94339
:101F7000F61B4FEA17444EEA8E0E27EA04454FEA55
:101F80001C4704FB07622CEA074C05FB07F70CFB18
:101F900005F604FB0CFC16EB074642EB174216EB6A
:101FA0000C4642EB1C421BEB060658EB0202414179
:101FB00046EA9E0601D5BDE80189B619524141EBBA
:101FC0000101A3F10103BDE801894FEA14454FEA7D
:101FD000114724EA054621EA074C05FB07F406FBF6
:101FE00007F70CFB06F105FB0CFC11EB074144EB7A
:101FF00017444FEA124711EB0C4144EB1C4422EA10
:10200000074C05FB07F206FB07F70CFB06F605FB82
:102010000CFC16EB074642EB174216EB0C4642EB64
:102020001C456A1854F1000148BF7047B619524167
:1020300041EB0101A3F10103704795F0000F37D088
:102040004FEA11424FEA144721EA024624EA074CBC
:1020500002FB07F106FB07F70CFB06F402FB0CFC86
:1020600014EB074441EB17414FEA154714EB0C44BE
:1020700041EB1C4125EA074C02FB07F506FB07F77D
:102080000CFB06F602FB0CFC16EB074645EB17456E
:1020900016EB0C4645EB1C42121951F1000148BFEA
:1020A0007047B619524141EB0101A3F1010370479A
:1020B0004FEA14454FEA114724EA054621EA074C46
:1020C00005FB07F106FB07F70CFB06F24FF00006D5
:1020D00005FB0CFC12EB074241EB174112EB0C42E3
:1020E00051EB1C4148BF7047921841EB0101A3F12D
:1020F00001037047FEE770B515460E4603F059FE22
:10210000040007D0314603F046FE58B1C1681029DB
:1021100004D007E0BDE8704003F006BE0169284620
:10212000FEF7FBFA2046F5E72DE9F04190460C4614
:1021300003F03FFE070008D0214603F02CFE050007
:102140001ED0E86820281BD104E003F0EDFD00203C
:10215000BDE8F081284603F011FE0646002408E0A1
:102160002146284603F004FE50B1007D08F8040023
:10217000641CB442F4DB384603F0D6FD3046E7E792
:102180003846E2E700B599B00EA217A118A000F0FA
:1021900033FD3C2000F052FC012240F25B7117A09D
:1021A00000F0FAFB60216846FEF799FB10A30EA22F
:1021B00017A16846FEF77AF9684600F07BFC19B073
:1021C00000BD00006430363265343663366532391E
:1021D000346630316162326235636436666332364A
:1021E0006339643700000000313035333539300051
:1021F00068776A3033303832350000006D7174749E
:102200002E6E6C65636C6F75642E636F6D000000DD
:102210002F7379732F25732F25732F73656E736F4B
:10222000722F636D647265710000000030B5ADF50A
:10223000497D04468021A0A8FEF751FBC8AB80AAC7
:10224000A0A9204600F06CFC00287DD12021C0A868
:10225000FEF745FBC0AA41A180A8FFF74CFF41A1B2
:10226000C0A8FEF748FA4FF4807400282AD021460F
:102270006846FEF734FB6A463DA180A8FFF73BFFA6
:1022800069463DA004F0F6F92046FDF7D9FF0500A8
:1022900015D02146FEF701FB6A463DA12846FEF710
:1022A00005F9214640A8FEF71AFB40AA3DA12846A1
:1022B000FFF73AFF002802DD40A802F02FFD284674
:1022C000FDF7EDFF39A1C0A8FEF715FAC0B1214610
:1022D0006846FEF704FB6A4625A180A8FFF70BFFBE
:1022E000694625A004F0C6F9214640A8FEF7F7FA92
:1022F00040A9684601F092FF10B940A802F00EFD17
:102300002FA1C0A8FEF7F7F9002823D02146684680
:10231000FEF7E5FA6A4616A180A8FFF7ECFE6946CB
:102320002CA004F0A7F9214640A8FEF7D8FA40A94E
:10233000684601F073FF00280CD140A802F0EEFCC3
:1023400040A8FEF70EFA00E004E0C0F3470140A801
:1023500002F086FB0DF5497D30BD000061706974A7
:1023600061670000737472696E675F706C617900F9
:1023700064617461000000006368696E6573655F85
:10238000706C61795F6865783A25730D0A0000000A
:102390007B2247626B436F6465223A5B25735D7DE8
:1023A0000000000047626B436F6465006368696EFC
:1023B0006573655F706C61795F6865780000000027
:1023C0006368696E6573655F7072696E745F686576
:1023D000780000006368696E6573655F7072696E8E
:1023E000745F6865783A25730D0A000010B588B0EF
:1023F00020216846FEF773FA684600F059FA164C39
:10240000022801D050B10EE0207860B913A117A0C6
:1024100000F0A8F838B90120207017E017A168462D
:10242000FEF769F960B1207801280FD0022805D1A4
:1024300000F030F8002801D10320207008B010BD52
:1024400011A10EA000F08CFA0020F6E7FFF79AFE2B
:1024500002202070ECE70000100000206E74702E47
:10246000736A74752E6564752E636E00636E2E6ECE
:1024700074702E6F72672E636E00000042426465B6
:102480006C656964610000003132333435363738A9
:10249000000000007FB5204C4FF0FF356078B8BBDE
:1024A0001EA122A000F05EF890BB694602A800F0D1
:1024B000A7F89DF8031059B3012528BB9DF8080023
:1024C0008DF80C009DF809008DF80D009DF80A00AC
:1024D0008DF80E00002203A9184801F0F9FA9DF8C2
:1024E00000008DF804009DF801008DF805009DF8AE
:1024F00002008DF806009DF803008DF80700002209
:1025000001A90E4801F082FA6570002004B070BD88
:10251000FFE72846FAE70000100000206E74702ED6
:10252000736A74752E6564752E636E00636E2E6E0D
:1025300074702E6F72672E636E00000040000020E2
:1025400010B5054800F0E4FBBDE810404FF4807181
:102550000248FEF7A2B90000C4050020AD03002028
:102560007047000030B5C1B00C4605464FF480718D
:1025700001A8FEF7B4F93CB12B4612A215A101A89F
:102580000094FDF793FF05E02B460EA216A101A8CB
:10259000FDF78CFFFFF7D4FF01A8FEF7E2F881B248
:1025A00001A802F08BF8132000F09AFC12A1134846
:1025B000FEF7A1F810B1002041B030BD4FF0FF3060
:1025C000FAE7000041542B434950534E54504346C0
:1025D0004700000025733D312C3830302C22257304
:1025E000222C22257322000025733D312C383030F7
:1025F0002C222573220000004F4B0000AD03002069
:102600002DE9F043C1B00D4606464FF4807168468F
:10261000FEF765F94FA253A16846FDF747FFFFF7A4
:102620008FFF6846FEF79DF881B2684602F046F8D3
:102630001F2000F055FC4D4C4BA1601CFEF75BF8D1
:1026400010B34BA1601CFEF756F810B30D30804656
:102650004BA1FEF750F8F8B100270770441C404624
:1026600002F0B0F82870A04645A12046FEF743F8D6
:10267000040014D02770441C404602F033F8687000
:10268000207820280ED00EE04FF0FF3041B0BDE89A
:10269000F0836FF00100F9E76FF00200F6E76FF0EA
:1026A0000300F3E7641C36A12046FEF724F8E0B3EC
:1026B000B8460770471C2046FEF710F8A870B946C8
:1026C0002FA13846FEF717F880B380F80080444603
:1026D0002AA14846FEF70FF848B30470471C484645
:1026E000FDF7FCFF3070B84624A13846FEF703F82A
:1026F00038B300F8014B07464046FDF7EFFF707016
:102700003846FDF7EBFFB070FF1C1EA13846FDF701
:10271000F2FFC8B104703846FDF7E0FFB0F5FA6F7C
:1027200015D3A0F5FA60E87012E001E003E005E0DF
:102730006FF00400AAE76FF00500A7E76FF006004E
:10274000A4E76FF00700A1E76FF008009EE7EC70C8
:1027500000209BE741542B434950534E5450544959
:102760004D453F00257300004F4B0000AC03002097
:102770002B434950534E545054494D453A000000A4
:10278000200000000D0A000030B5C1B00C4605461F
:102790004FF4807101A8FEF7A2F82B460EA211A1FA
:1027A00001A80094FDF782FEFFF7CAFE01A8FDF71D
:1027B000D8FF81B201A801F081FF132000F090FB47
:1027C0000BA10C48FDF797FF10B1002041B030BDC0
:1027D0004FF0FF30FAE7000041542B435744484381
:1027E0005000000025733D25642C25640000000086
:1027F0004F4B0000AD03002030B5C1B00C4605467C
:102800004FF4807101A8FEF76AF82B4607A20AA1CF
:1028100001A80094FDF74AFE01A8FDF7A2FF81B2CE
:1028200001A801F04BFF41B030BD000041542B43E3
:10283000574A41500000000025733D222573222C89
:10284000222573220000000010B5C0B004464FF4EA
:1028500080716846FEF743F823460EA210A1684631
:10286000FDF724FEFFF76CFE6846FDF77AFF81B2A4
:10287000684601F023FF132000F032FB0AA10B4849
:10288000FDF739FF10B1002040B010BD4FF0FF3010
:10289000FAE7000041542B43574D4F4445000000D8
:1028A00025733D25640000004F4B0000AD03002060
:1028B0002DE9F041C0B080464FF480716846FEF7C4
:1028C0000EF81DA21FA16846FDF7F0FDFFF738FEC8
:1028D0006846FDF746FF81B2684601F0EFFE13201F
:1028E00000F0FEFA194C18A1601CFDF704FF4FF030
:1028F000FF36F8B116A1601CFDF7FDFED0B109301E
:10290000002407464470FDF7E9FE45B217F8030FAF
:1029100022280BD011A13846FDF7EDFE50B104700E
:10292000B8F1000002D03946FDF7F7FE284640B066
:10293000BDE8F0813046FAE741542B4357535441E8
:1029400054453F00257300004F4B0000AC030020AE
:102950002B435753544154453A00000022000000D5
:1029600070B505460C46002000F09CF9002812D1F5
:102970000120FFF769FF00280DD101210846FFF76C
:1029800003FF0120FFF760FF002804D121462846FD
:10299000FFF732FF002070BDF0B5C3B00D4607460B
:1029A000164600244FF4807102A8FDF798FFCDE988
:1029B00000563B4614A217A102A8FDF777FDFFF7CA
:1029C000BFFD02A8FDF7CDFE81B202A801F076FEA0
:1029D000144D15A1681CFDF78EFE38B116A1681CB8
:1029E000FDF789FE68B1002043B0F0BD641CE4B27D
:1029F0003C2C02D94FF0FF30F6E7632000F070FA6C
:102A0000E7E76FF00100EFE741542B4D5154544379
:102A10004F4E4E0025733D302C222573222C256409
:102A20002C256400AC0300202B4D515454434F4ED1
:102A30004E454354454400004F4B000010B5C0B014
:102A400004464FF480716846FDF749FF23460EA205
:102A500011A16846FDF72AFDFFF772FD6846FDF7F4
:102A600080FE81B2684601F029FE132000F038FA9A
:102A70000EA10F48FDF73FFE10B1002040B010BD81
:102A80004FF0FF30FAE7000041542B4D51545443AE
:102A90004F4E4E434647000025733D302C25642C95
:102AA000302C22222C22222C302C30004F4B0000C4
:102AB000AD03002010B5C0B004464FF480716846E5
:102AC000FDF70DFF23460EA210A16846FDF7EEFCB0
:102AD000FFF736FD6846FDF744FE81B2684601F017
:102AE000EDFD132000F0FCF90BA10C48FDF703FEEF
:102AF00010B1002040B010BD4FF0FF30FAE70000E9
:102B000041542B4D515454535542000025733D30D0
:102B10002C222573222C30004F4B0000AD030020E7
:102B20002DE9FC471E4691468846040041D0B8F185
:102B3000000F3ED0B9F1000F3BD0002E39D026A1B6
:102B40002046FDF7D8FD90B327A12046FDF7D3FD21
:102B500070B3801C074625A1FDF7CDFD040031D0E0
:102B60000025257039464046FDF7D7FDA41C2746B1
:102B70001FA12046FDF7BFFD040026D0257000955B
:102B8000394668460195FDF7C8FD6846FDF7A6FD84
:102B90003070641C17A12046FDF7ADFDC0B1057073
:102BA00021464846FDF7B9FD0020BDE8FC8703E05B
:102BB00005E04FF0FF30F8E76FF00100F5E76FF048
:102BC0000200F2E76FF00300EFE76FF00400ECE7BC
:102BD0006FF00500E9E700002B4D51545453554266
:102BE000524543563A0000002C220000222C0000DF
:102BF0002C0000000D0A000070B5C2B00C4606465D
:102C000015464FF4807102A8FDF769FE33460FA206
:102C100012A102A8CDE90045FDF748FCFFF790FCA2
:102C200002A8FDF79EFD81B202A801F047FD132026
:102C300000F056F911A11248FDF75DFD10B100201A
:102C400042B070BD4FF0FF30FAE7000041542B4D09
:102C500051545455534552434647000025733D3067
:102C60002C312C222573222C222573222C22257311
:102C7000222C302C302C2222000000004F4B000070
:102C8000AD03002010B5062104A001F017FDBDE83A
:102C9000104040F2FF1000F023B9000041542B52C5
:102CA0005354000010B5C0B004464FF4807168461C
:102CB000FDF715FE23460EA210A16846FDF7F6FBB0
:102CC000FFF73EFC6846FDF74CFD81B2684601F017
:102CD000F5FC132000F004F90AA10B48FDF70BFDE9
:102CE00010B1002040B010BD4FF0FF30FAE70000F7
:102CF00041542B53595353544F52450025733D258E
:102D0000640000004F4B0000AD03002072B6FEE7E8
:102D1000002101804180704700230380438041608F
:102D2000028170470089491CB1FBF0F200FB1210D0
:102D300080B2704770B504460188FFF7F3FF616801
:102D40000D5C21882046FFF7EDFF2080284670BDEE
:102D500070B50D4604464188FFF7E4FF6080616866
:102D60000D5470BD10B590F821100022022905D035
:102D70000421816380F82020012010BD01680B68C8
:102D800023F00E030B6001680B6823F001030B6056
:102D900090F84030C46B012101FA03F3636080F8BE
:102DA000211080F82020104610BD00002DE9F05FB2
:102DB00090F821100024022903D00421816301240A
:102DC00085E001680A6822F00E020A6001680A685C
:102DD00022F001020A603F4E3E4FB215DFF8F4C008
:102DE000DFF8F090DFF8ECA0DFF8E8B0DFF8E4E01F
:102DF0000168783F13011502ACF1640CA9F1500988
:102E0000AAF13C0AABF1280BAEF1140E4FF4801876
:102E1000B14227D9B9420ED0614512D049451DD0E3
:102E2000514518D0594518D0714501D1424615E099
:102E3000294EB14201D1012210E0274E1436B14291
:102E400001D110220AE0244E2836B14206D0224A8F
:102E50003C32914201D11A4600E02A461E49091F20
:102E60000A602BE0B94213D0614517D0494522D002
:102E700051451DD059451DD0714501D142461AE03A
:102E8000B14202D14FF0807215E0134EB14201D130
:102E9000012210E0104E1436B14201D110220AE096
:102EA0000D4E2836B14206D00B4A3C32914201D138
:102EB0001A4600E02A46074980394A60012180F815
:102EC0002110002180F82010416B01B18847204675
:102ED000BDE8F09F8000024008040240806B70470C
:102EE00070B5044600F014F90546601C02D0044891
:102EF0000078044400F00CF9401BA042FAD370BDE6
:102F0000000000202DE9F84FDFF8C891002409F1F6
:102F1000040A0AF1040B23460F270BF1040ED1E03B
:102F20000125A54006EA0502AA4276D1DFF8A8C12C
:102F30004E68A6EB0C0866452BD00DDC032E34D072
:102F400005DC36B3012E19D0022E2FD11BE0112E35
:102F500016D0122E2AD119E0B8F5881F19D006DC38
:102F6000B8F5803F15D0B8F5801F1FD111E0B8F536
:102F7000001F0ED0B8F5041F18D10AE0CB6815E089
:102F8000CB681B1D12E0CB6808330FE0CB680C3315
:102F90000CE08B682BB1012B4FF0080303D0456187
:102FA00004E0042302E0056100E00023FF2A01D8C9
:102FB000064601E000F104064FEA840501D9A5F1B7
:102FC0002005D6F8008007FA05FC28EA0C0803FA69
:102FD00005F548EA0508C6F800804D68ED0070D593
:102FE0003E4DAE6946F00106AE61AD6924F00306C0
:102FF00005F0010500953A4D06EB050CDCF808508C
:10300000A607360F07FA06F825EA0805DFF8D48088
:10301000404503D14FF0000825E052E0DFF8C880BA
:10302000404502D14FF001081DE0DFF8C080404567
:1030300002D14FF0020816E0DFF8B480404502D11B
:103040004FF003080FE0DFF8AC80404502D14FF0AD
:10305000040808E0DFF8A080404502D14FF00508E1
:1030600001E04FF0060808FA06F848EA0508CCF82F
:1030700008804D68D9F80060ED034D4601D5164330
:1030800000E096432E604D68DAF80060AD035546C7
:1030900001D5164300E096432E604D68DBF80060D2
:1030A000ED025D4601D5164300E096432E604D6863
:1030B000DEF80060AD02754601D5164300E0964388
:1030C0002E60641C0A681646E2407FF429AFBDE812
:1030D000F88F0000000401400000111000100240B1
:1030E0000000014000080140000C014000100140B8
:1030F0000014014000180140001C01408068084095
:1031000000D0012070470AB1016170470904FBE754
:103110000148806870470000000000200248816874
:10312000027811448160704700000020074810B504
:10313000016841F010010160032000F075F80F20D4
:1031400000F006F800F024F8002010BD0020024036
:1031500070B50D4D04464FF47A712878B1FBF0F04C
:103160000A490968B1FBF0F000F09EFD48B9102C47
:1031700007D200222146501E00F036F800206C6075
:1031800070BD012070BD0000000000200C00002078
:103190000C4808B5816941F001018161816901F044
:1031A00001010091C16941F08051C161C06900F025
:1031B000805000900448416821F0E06141F00071C6
:1031C000416008BD0010024000000140002809DBFA
:1031D00000F01F02012191404009800000F1E02031
:1031E000C0F8001170470000F0B40E4B1B680C468D
:1031F000C3F30223C3F10705042D00D90425191DCB
:10320000072901D2002300E0DB1E012606FA05F1A2
:10321000491E214099409E40761E16403143F0BC25
:1032200001F04ABE0CED00E0064900F00702086814
:103230004FF6FF03184040EA0220034A104308609B
:10324000704700000CED00E00000FA050149012084
:103250000862704700000E4210B52CA401461DCC38
:1032600086B08DE81D002DA02D4C00680490002034
:1032700004292FD00BDC01292FD0022928D100F0FE
:1032800079F96168C1F38131491C49001EE00829C0
:1032900020D010291CD161682268D20118D5C1F351
:1032A0008342C9031DF8020009D5616804AAC1F36D
:1032B0004041515C1B4AB2FBF1F1484301E01A491D
:1032C00048436168490203D440000321B0FBF1F098
:1032D00006B010BD00F05EF9FAE7226AC2F30121E0
:1032E000012903D1920701D5C803F1E7022905D1CD
:1032F000626A920702D549F64040E9E70329E7D11F
:1033000021688903E4D54FF22440E1E70203040574
:10331000060708090A0B0C0D0E0F10100102000021
:103320000010024000127A0000093D002DE9F84328
:1033300005460078354CC00754D0E0690026C0002F
:1033400008D4E06940F08050E061E069012600F0B7
:10335000805000902E480168C90512D4016880464B
:1033600041F480710160FFF7D3FE074605E000BF1E
:10337000FFF7CEFEC01B642823D8D8F80000C00594
:10338000F6D5206A10F4407021D0A98801F440716C
:1033900081421CD0206A1F49012220F440700A603B
:1033A00000220A602062C00711D0FFF7B1FE074675
:1033B00041F2883808E000BFFFF7AAFEC11B414573
:1033C00002D90320BDE8F883206A8007F4D5206A7B
:1033D000696820F44070084320621EB1E06920F063
:1033E0008050E0612878800705D56068A96820F4DE
:1033F0004040084360602878C00605D56068696968
:1034000020F48000084360600020DBE700100240E9
:103410000070004040044242704700002DE9F04730
:103420000F46050061D0434E306800F00700B842F7
:1034300009D2306820F0070038433060306800F06F
:103440000700B84251D128683B4C810712D540078C
:1034500003D5606840F4E06060602878000703D519
:10346000606840F4605060606068A96820F0F00017
:10347000084360602878C00728D06868012810D009
:103480002168022810D0890700292EDA616821F00E
:10349000030101436160FFF73BFE804641F288393A
:1034A0000DE021688903EFE78901EDE7FFF730FEC2
:1034B000A0EB0801494502D90320BDE8F087606808
:1034C000696800F00C00B0EB810FEFD1306800F0BC
:1034D0000700B8420BD9306820F00700384330604D
:1034E000306800F00700B84201D00120E5E72878F5
:1034F000400705D56068E96820F4E0600843606033
:103500002878000706D56068296920F4605040EAF1
:10351000C100606000F03EF86168084AC1F3031121
:10352000515CC8400649086006480068FFF710FE75
:103530000020C2E70020024000100240C8730008CB
:103540000C0000200400002001490120C8647047DD
:10355000000042420448054900684968044AC1F332
:103560000221515CC84070470C000020001002404E
:10357000D87300080448054900684968044AC1F343
:10358000C221515CC84070470C000020001002406E
:10359000D873000812A185B00FC98DE80F0014A0E0
:1035A000144A006804905168134801F00C03042B7E
:1035B00010D0082B0ED1C1F38343C9031DF80300BB
:1035C0000AD5516804AAC1F34041515C0A4A5043EC
:1035D000B0FBF1F005B0704708494843FAE7000036
:1035E00002030405060708090A0B0C0D0E0F101044
:1035F000010200000010024000127A0000093D00A4
:1036000010B5044CA068000603D5FFF705FF802025
:10361000A07210BD001002402DE9F84F040070D0D8
:103620002078C04DC00749D06868C0F381000128E8
:1036300007D06868C0F38100022809D16868C00318
:1036400006D52868800339D560680028E7D035E0C2
:103650006068B0F5803F0BD010B1B0F5A02F11D04D
:10366000286820F480302860286820F4802002E058
:10367000286840F480302860606890B1FFF748FD0A
:1036800006460AE0286840F480202860F0E700BF82
:10369000FFF73EFD801B642873D828688003F7D5A8
:1036A0000CE0FFF735FD064605E000BFFFF730FDF3
:1036B000801B6428F0D828688003F7D420789A4EBD
:1036C00080074FF001094FF0000839D5686810F005
:1036D0000C0F07D06868C0F38100022809D1686820
:1036E000C00306D42868800714D52069012808D1B2
:1036F00010E02069B0B1C6F80090FFF709FD074659
:1037000005E00AE1FFF704FDC01B0228C4D82868C1
:103710008007F7D52868616920F0F80040EAC10009
:1037200028600DE0C6F80080FFF7F2FC074604E0D1
:10373000FFF7EEFCC01B022823D828688007F7D4C7
:10374000207800072CD57948A169D9B1C0F800903C
:10375000FFF7DEFC074604E0FFF7DAFCC01B022897
:103760000FD8686A8007F7D571484FF4FA5100689E
:10377000B0FBF1F0009000BF0098411E0091FAD21A
:103780000EE080E0C0F80080FFF7C2FC074604E0CE
:10379000FFF7BEFCC01B022875D8686A8007F7D403
:1037A0002078400760D5E8690027C00008D4E869A0
:1037B00040F08050E861E869012700F080500090F7
:1037C0005C480168C90513D40168834641F48071DF
:1037D0000160FFF79DFC824606E000BFFFF798FC02
:1037E000A0EB0A0064284ED8DBF80000C005F5D530
:1037F000E06801280AD008B1052813D0286A20F013
:1038000001002862286A20F0040002E0286A40F0E3
:1038100001002862E06841F2883B98B1FFF778FC2C
:1038200082460BE0286A40F004002862EEE700BF01
:10383000FFF76EFCA0EB0A0159455AD8286A8007A9
:10384000F6D50CE0FFF764FC824605E0FFF760FC6C
:10385000A0EB0A0159454CD8286A8007F6D41FB15D
:10386000E86920F08050E861E06988B36968C1F3D5
:103870008101022944D00228C6F8608004D0FFF7F5
:1038800047FC044638E034E0FFF742FC074604E01A
:10389000FFF73EFCC01B02282BD828688001F7D414
:1038A000206AB0F5803F05D16868A16820F4003037
:1038B00008436860D4E908010843696821F4741179
:1038C00008436860C6F86090FFF722FC044606E0F3
:1038D00025E000BFFFF71CFC001B022809D8286860
:1038E0008001F7D51BE000BFFFF712FC001B022888
:1038F00002D90320BDE8F88F28688001F4D40EE0D7
:103900000128F7D06868226A00F48031914204D11E
:10391000616A00F47010884201D00120EAE70020BB
:10392000E8E70000001002400000424280044242EA
:103930000C0000200070004070B5040003D0607CD3
:10394000002610B105E0012070BD2674204600F06D
:1039500043F802206074204600F010F9042578BB7B
:10396000204600F00AFE58BB2068416821F007019C
:103970004160A06820B11748016821F00101016091
:103980001448001F0168A26821F4607111430160AE
:103990006068411C04D10120FFF75EFC80B1401E2D
:1039A00021688A6822F00F0242EA10428A60216888
:1039B000CA6860F30F02CA60204600F0F9FD08B142
:1039C0006574C0E7E67301206073A0736074002023
:1039D00070BD0000306C004008B50068084988429E
:1039E0000DD1FFF733FC0748C16941F00061C161A7
:1039F000C069054900F0006000900120086008BD22
:103A000000280040001002403C0442422DE9F041F1
:103A10000D4604003BD0C5B3207C01283AD04FF0BE
:103A2000010884F8108002206074E87872B300F016
:103A30009BFDE073687800F097FD6073A87800F054
:103A400093FDA073C2B2617BE07B00F0E3FD2073C5
:103A50002870204600F0CEFD4FF46161B0FBF1F11B
:103A6000002518292DD91822B1FBF2F1A1EB011183
:103A700001EB4101C1EB011100EBC11631462046BB
:103A800000F007FE0427C8B90BE000E004E00120C5
:103A9000BDE8F0810220FBE7E07368786073A878E6
:103AA000CFE7204600F09FFD411C0AD0B04208D26B
:103AB00006490144204600F0D8FD10B16774257412
:103AC000E5E784F8118025740020E1E780510100CA
:103AD0002DE9F0410D46040024D01DB3207C0128BF
:103AE00023D04FF0010884F81080022060742878F9
:103AF000EAB100F039FD4FF4616100FB01F668782E
:103B000000F032FDC0EB001006EB8006A87800F054
:103B10002BFD35182946204600F0BBFD0026042762
:103B200010BB0FE00120BDE8F0810220FBE74FF45D
:103B3000616148436978C1EB011100EB8100A9780C
:103B40004518E7E72068416821F0050141602046FB
:103B500000F049FD411C0AD0A84208D206490144A0
:103B6000204600F082FD10B167742674DAE784F80D
:103B7000118026740020D6E78051010070B5040042
:103B80000AD02068416821F008014160FFF7C0FABF
:103B900005464FF47A7608E0012070BDFFF7B8FAC9
:103BA000401BB04201D9032070BD20684068000767
:103BB000F4D5002070BD70B5040005D00025A562C5
:103BC00094F8510010B106E0012070BD84F8505007
:103BD000204600F02FF8022084F851002068016888
:103BE00021F040010160D4E901010843D4E9031246
:103BF0001143084361690843218B01F400710843B4
:103C0000E1690843216A0843A16A08432168086002
:103C1000A069042101EA1040216848602068C16958
:103C200021F40061C1616565012084F85100002024
:103C300070BD000030B585B000240094019402945A
:103C4000039400681549884225D11548C16941F49B
:103C50008041C161C16901F480410491816941F0F1
:103C60000801816180690F4D00F0080004904FF455
:103C700020400090022001900320039069462846CE
:103C8000FFF740F94FF48040CDE90004694628462B
:103C90000294FFF737F905B030BD0000003800404E
:103CA00000100240000C014010B5401EB0F1807FB2
:103CB00001D3012010BD4FF0E02460610F21601797
:103CC00001F0FAF80020A06107202061002010BD5B
:103CD00070B504460068C16821F49071C160206825
:103CE000416921F001014161206841694FF00005FF
:103CF00049060FD5416921F040014161606B48B12F
:103D00004563606BFFF72EF820B1606BFFF7E6F8B4
:103D1000202805D0E585202084F83A00002070BDD9
:103D20001020E063032070BD7047000070B502688A
:103D300004461068D168536910F00F0F50D003F09B
:103D4000010501F4907635435DD0C20705D0CA0560
:103D500003D5E26B42F00102E263420705D5DA07C0
:103D600003D0E26B42F00202E263820705D5DA0774
:103D700003D0E26B42F00402E263020705D5DA07E2
:103D800003D0E26B42F00802E263E26B002A33D018
:103D9000800604D5880602D5204600F081FE206802
:103DA0004069E16BC0F38010090700D428B32046B6
:103DB00000F068FE2068416949061AD5416921F082
:103DC00040014161606BA0B11B494163606BFEF72C
:103DD000EDFF002810D0606B416BBDE870400847D4
:103DE000830610D58B060ED52046BDE8704000F046
:103DF00057BE2046FFF798FF70BD2046FFF794FF9F
:103E00000020E06370BD030606D50B0604D52046EE
:103E1000BDE8704000F0ECBE4006F3D54806F1D591
:103E2000D168204621F04001D160202184F839106A
:103E300000F0F3F970BD0000754A000870B5040089
:103E400004D094F83900002510B106E0012070BDBF
:103E500084F83850204600F023F8242084F83900F4
:103E60002068C16821F40051C160204600F064FE62
:103E70002068016921F4904101612068416921F0C5
:103E80002A0141612068C16841F40051C160E563C5
:103E9000202084F8390084F83A00002070BD00002A
:103EA000F0B585B00024009401940294039407684F
:103EB0005C495D48DFF868C10D1502220323C61472
:103EC000674524D1CF6947F40027CF61CF6907F454
:103ED000002704978F6947F010078F61896901F007
:103EE0001001CDE90331CDE9005269460546FFF7DF
:103EF00009F8CDE90064694628460294FFF702F804
:103F0000002211463420FFF76FF9342031E0DFF84A
:103F10001CC1674531D1CD6945F48015CD61CD69AE
:103F200005F4801504958D6945F010058D618D6946
:103F300005F0100504958D6945F020058D618969AE
:103F4000039301F0200104914FF48051CDE9001258
:103F50006946FEF7D7FF0420CDE9000469463448DE
:103F60000294FEF7CFFF002211463520FFF73CF9FF
:103F70003520FFF72BF905B0F0BD2E48874226D13A
:103F8000886940F480408861886900F4804004902A
:103F9000886940F0040088618869274E00F00400B9
:103FA00004907815CDE90002694603933046FEF788
:103FB000A9FFCDE90054694630460294FEF7A2FFFE
:103FC000002211462520FFF70FF92520D1E71B48D5
:103FD0008742D0D1C86940F48020C861C86900F424
:103FE00080200490886940F0080088618869CDE9E4
:103FF000005200F00800CDE90330114D6946284613
:10400000FEF780FFCDE90064694628460294FEF77A
:1040100079FF002211462720FFF7E6F82720A8E7BE
:10402000004C0040001002400010014000500040D1
:1040300000140140003801400008014000480040E1
:10404000000C014090F83A30202B22D1F9B1F2B1A6
:1040500090F83830012B1CD081628285C285002106
:10406000C163222280F83A2080F838100168CA68BB
:1040700042F48072CA6001684A6942F001024A61F2
:104080000068C16841F02001C16000207047012034
:10409000704702207047000010B500682649274C81
:1040A00088420CD1012221462548FFF7CBFF254845
:1040B00000F006F900283ED12178224837E0224955
:1040C00088420FD11D490122491C2048FFF7BAFF41
:1040D0001C480C3000F0F4F800282CD11948617805
:1040E0000C3024E01A4988420FD114490122891C5E
:1040F0001848FFF7A7FF1348183000F0E1F8002830
:1041000019D11048A178183011E01349884212D112
:104110000A490122C91C1148FFF794FF09482430BD
:1041200000F0CEF8002806D10648E1782430BDE83A
:104130001040FEF70DBE10BD003801401A000020EF
:104140002C010020AC050020004800406C0100203C
:10415000004C0040AC00002000500040EC0000206B
:104160002DE9F843044690F839001F4616460D46DF
:10417000202850D1A5B19EB194F8380001284AD02A
:10418000012084F838004FF00008C4F83C8021205A
:1041900084F83900FEF7BCFFA6848146E68426E059
:1041A0000120BDE8F883E08C401EE084A0684B4607
:1041B000B0F5805F4FF000024FF08001204600977D
:1041C00003D000F046FDE8B90DE000F042FDC8B9AB
:1041D00028882168C0F308004860206908B16D1C78
:1041E00005E0AD1C03E0216815F8010B4860E08C88
:1041F0000028D8D14B46002240212046009700F0ED
:1042000028FD08B10320CCE7202084F8390084F889
:1042100038800020C5E70220C3E770477CB50E4612
:104220000446FCF79EFA85B2E8070CD1002316E09D
:10423000E05C694600F026F828B9E01801A940784A
:1042400000F020F808B101207CBD9DF804009DF825
:1042500000109B1C00EB011006F8010BDBB2AB4217
:10426000E6D300207CBD000001A002F003FAFEE7C7
:10427000486172644661756C745F48616E646C6518
:10428000720D0A00A0F13002092A01D80A700BE071
:10429000A0F16102052A01D8573804E0A0F14102DB
:1042A000052A03D83738087000207047012070476E
:1042B00001884088814201D1012070470020704769
:1042C00010B504464188FEF72DFD2188884201D1B2
:1042D000012010BD002010BD30B585B00024144869
:1042E000019402940394816941F010018161816914
:1042F00001F010010491816941F020018161806920
:104300004FF4005500F020000490694600950948DC
:10431000FEF7F8FD694608480095FEF7F3FD0748EB
:10432000012104808170C470047105B030BD0000AB
:104330000010024000100140001401402400002041
:1043400010B501F021FE074948708A78824201D0F9
:10435000887001E00020487048780249891D087182
:1043600010BD00001E000020114808B5816941F011
:1043700010018161816901F010010091816941F0B2
:1043800008018161816901F008010091816941F0B2
:1043900004018161816901F004010091816941F0AA
:1043A00020018161806900F02000009008BD0000BC
:1043B000001002401CB500241848019416490094CE
:1043C0000160611E41604FF480718160FFF7B4FAB3
:1043D00008B1FEF79BFC8DF804408DF805408DF880
:1043E0000640012201A90D48FFF772FB08B1FEF754
:1043F0008DFC01208DF800008DF801008DF8020081
:1044000002468DF8034069460448FFF7FFFA00288A
:1044100001D0FEF77BFC1CBD0028004040000020BE
:104420000F4810B50D4901604FF4827141600021C1
:104430008160C1604FF400720161C0E90512C16181
:104440000162416281620A21C162FFF7B4FB002868
:1044500003D0BDE81040FEF759BC10BD0038004045
:10446000540000200C4810B50A4901604FF4E131B6
:104470004160002181600C22C160C0E904128161A9
:10448000C161FFF7DBFC002803D0BDE81040FEF758
:104490003DBC10BD004C0040AC0000200C4810B5E5
:1044A0000A4901604FF4E1314160002181600C2232
:1044B000C160C0E904128161C161FFF7BFFC00283F
:1044C00003D0BDE81040FEF721BC10BD00500040F5
:1044D000EC0000200C4810B50A4901604FF4E131AE
:1044E0004160002181600C22C160C0E90412816139
:1044F000C161FFF7A3FC002803D0BDE81040FEF720
:1045000005BC10BD003801402C0100200C4810B53E
:104510000A4901604FF4E1314160002181600C22C1
:10452000C160C0E904128161C161FFF787FC002806
:1045300003D0BDE81040FEF7E9BB10BD00480040C5
:104540006C01002001A002F095F8FEE74D656D4D6D
:10455000616E6167655F48616E646C65720D0A002B
:10456000FFF74EF8FEE77047010901EB810100F00B
:104570000F0000EB4100C0B2704770B50446FEF773
:10458000C7FD05464FF47A7606E0FEF7C1FD401BF5
:10459000B04201D9032070BD206840688006F4D580
:1045A0002068416841F010014160002070BD0000AA
:1045B00070B504460068416821F010014160FEF7C3
:1045C000A7FD05464FF47A7607E000BFFEF7A0FD91
:1045D000401BB04201D9032070BD206840688006AE
:1045E000F4D5002070BD0168086A496A89B241EAC1
:1045F00000407047006881698AB2C1698BB28169E5
:1046000089B28A4203D0C06961F31F40704743EA10
:1046100002407047F0B56424C1EBC1030927A5002F
:10462000072603EB01130329B3FBF7F100F5FA604A
:10463000114401440AD2401EB0FBF4F201EB900198
:10464000B0FBF5F0891A0844001D08E0B0FBF4F255
:1046500001EB9001B0FBF5F0891A0844801CB0FB17
:10466000F6F106FB1100C0B2F0BD70B50D4606466E
:104670000024FFF782FF48B93168280C08623168CE
:10468000A8B248623046FFF793FF00B101242046EC
:1046900070BD70B50D4606460024FFF76EFF48B9A1
:1046A0003168280C88613168A8B2C8613046FFF7CC
:1046B0007FFF00B10124204670BD70470A4610B547
:1046C00001464FF6FF730548FFF74AFD0A23BDE890
:1046D0001040022202A10148FFF742BDAC000020B9
:1046E0000D0A000010B5044629A1FCF704F808B132
:1046F000012010BD27A12046FBF7FDFF08B10220D5
:1047000010BD25A12046FBF7F6FF08B1032010BD20
:1047100022A12046FBF7EFFF08B1042010BD20A125
:104720002046FBF7E8FF08B1052010BD1DA120467B
:10473000FBF7E1FF08B1062010BD1BA12046FBF7E7
:10474000DAFF08B1072010BD18A12046FBF7D3FF00
:1047500008B1082010BD16A12046FBF7CCFF08B118
:10476000092010BD14A12046FBF7C5FF08B10A209F
:1047700010BD12A12046FBF7BEFF08B10B2010BDF3
:104780000FA12046FBF7B7FF0028F8D00C2010BD82
:104790004A616E00466562004D61720041707200B0
:1047A0004D6179004A756E004A756C00417567006D
:1047B00053657074000000004F6374004E6F760004
:1047C0004465630010B5044618A1FBF794FF08B1D7
:1047D000012010BD16A12046FBF78DFF08B1022075
:1047E00010BD14A12046FBF786FF08B1032010BDC1
:1047F00011A12046FBF77FFF08B1042010BD0FA1D7
:104800002046FBF778FF08B1052010BD0CA120461B
:10481000FBF771FF08B1062010BD0AA12046FBF787
:104820006AFF0028F8D0072010BD00004D6F6E0011
:1048300054756500576564005468750046726900D8
:104840005361740053756E00FEF768BC70B596B086
:1048500028216846FCF743F814210AA8FCF73FF822
:1048600018210FA8FCF73BF8012405200025009033
:10487000CDE902544FF48030019002260494CDE932
:1048800007604FF4E01009906846FEF7C5FE08B1D6
:1048900072B6FEE70F20CDE90A064FF48060CDE93D
:1048A0000C5002210AA80E95FEF7B8FD08B172B6A9
:1048B000FEE74FF48070CDE90F400FA8FEF736FDFC
:1048C00008B172B6FEE7FEF73FFE16B070BD704746
:1048D000074910B54FF4807201F58060FEF71CFAAD
:1048E000BDE81040012203490348FFF7ABBB0000BD
:1048F000AC0100201A0000202C010020074910B54F
:104900004FF4807201F54370FEF706FABDE81040DF
:10491000012203490348FFF795BB0000AC020020C9
:104920001B0000206C0100202DE9F0410746002506
:104930000E462C461548FFF7BBFCC0B10020BDE871
:10494000F0811248FFF7B4FC30B1641CE4B20F48A8
:10495000FFF7B6FC68B907E000240C48FEF7EAF957
:1049600078556D1CADB2F2E70020FEF7B9FAB442FB
:10497000E7D30648FEF7CCF90548FFF7A9F901226D
:1049800004490348FFF75EFB2846D8E7B805002036
:104990006C0100201B0000200A4601464FF6FF7301
:1049A0000148FFF7DDBB00006C010020074910B58E
:1049B0004FF4807201F50670FEF7AEF9BDE81040C5
:1049C000012203490348FFF73DBB0000AC03002070
:1049D0001C000020AC0000200148FFF7A7B9000030
:1049E000AC0000202DE9F041074600250E462C467C
:1049F0001548FFF75DFCC0B10020BDE8F08112480A
:104A0000FFF756FC30B1641CE4B20F48FFF758FCC6
:104A100068B907E000240C48FEF78CF978556D1C46
:104A2000ADB2F2E70020FEF75BFAB442E7D30648E6
:104A3000FEF76EF90548FFF74BF9012204490348D8
:104A4000FFF700FB2846D8E7C4050020AC00002093
:104A50001C0000200148FFF769B90000EC000020AD
:104A60000A4601464FF6FF730148FFF779BB000085
:104A7000EC00002010B5406A0021C185C184FFF719
:104A800053F910BD0168CA6822F49072CA600168C7
:104A90004A6922F001024A61202180F83A107047E9
:104AA00010B590F83A10222901D0022010BD81687B
:104AB000B1F5805F11D00169002901681FD04968F4
:104AC00001F07F03816A4A1C82620B70C18D491E0E
:104AD0000904090CC18518D02BE00269816A002AFB
:104AE0000268526805D0D2B20A80816A491C81628C
:104AF000ECE7C2F308020A80816A891CF7E74A687A
:104B0000816A4B1C83620A70E0E70168CA6822F080
:104B10002002CA600168CA6822F48072CA60016813
:104B20004A6922F001024A61202180F83A10FFF719
:104B3000B3FA002010BD00002DE9F04104460068E2
:104B40000169E26821F44051114301612169A068C3
:104B50000843616908432168CA6841F20C639A43BB
:104B60000243CA6020684169A26921F4407111437F
:104B700041611E49206864253226884202D1FEF731
:104B8000F9FC01E0FEF7E6FC00EBC00101EB0011CF
:104B900060686FF018078000B1FBF0F2B2FBF5F22D
:104BA000B1FBF0F37A4303EB8202B1FBF0F306EBC7
:104BB0000212B2FBF5F2B3FBF5F302F0F00202EBE6
:104BC0000312B1FBF0F3B1FBF0F0B0FBF5F078436A
:104BD00003EB800006EB0010B0FBF5F0216800F05D
:104BE0000F0010448860BDE8F081000000380140EB
:104BF00090F83910212901D0022070478168B1F561
:104C0000805F016A0BD04A1C026202680978516019
:104C1000C18C491E0904090CC1840ED017E0098813
:104C20000268C1F30801516001690029016A02D0DC
:104C3000491C0162ECE7891CFBE70168CA6822F0A5
:104C40008002CA600068C16841F04001C160002074
:104C500070472DE9F041984617460E460446069DDA
:104C60001DE0681C1BD02DB1FEF752FAA0EB080026
:104C7000A84214D92068C16821F4D071C1602068AD
:104C8000416921F001014161202084F8390084F854
:104C90003A00002084F838000320BDE8F081206845
:104CA000006836EA000004D00020B842D9D00020C5
:104CB000F3E70120F9E700000148FFF737B80000EB
:104CC0002C0100200148FFF731B800006C010020E2
:104CD000FEE7000000B5C1B003216846FFF782FE81
:104CE00010B16846FDF7A2FA06490888421C0A80FE
:104CF00041F28832904203D900200880FDF776FB0C
:104D000041B000BD1800002000EB800101EBC000A5
:104D10000149084400F002B8E073000870B5C0B063
:104D20000446FBF71EFDFD228DF800200022C0B2D4
:104D30008DF80120811CC9B201228DF802108DF876
:104D400003208DF8042000226B4605E09E1814F81D
:104D5000015B521C7571D2B28242F7D31846C91C4E
:104D6000FFF71AFE40B070BD10B5C0B00321684611
:104D7000FFF7DAFD002823D09DF8000000244A2820
:104D800005D009DC412802D0452805D101E00124E5
:104D900002E00FA0FFF7C2FF1DF804106846FC29CF
:104DA0000ED10119C878012807D002280AD003289B
:104DB0000AD0042804D109A007E00879FFF7A4FF6E
:104DC00040B010BD0CA000E011A0FFF7A7FFF7E76F
:104DD000C3FCC1EEB4EDCEF300000000D3EFD2F47B
:104DE000CAB6B1F0CFB5CDB3B3F6CFD6C4DAB2BF41
:104DF000B4EDCEF300000000D3EFD2F4CAB6B1F0A8
:104E0000CFB5CDB3B3F6CFD6B3ACCAB10000000076
:104E1000D3EFD2F4CAB6B1F0CFB5CDB3B3F6CFD697
:104E2000BEDCCAB60000000010B586B000200290BB
:104E30001148816941F00801816180690F4C00F0DF
:104E400008000490022000900120019003200390AC
:104E500069462046FEF756F8002202212046FEF75A
:104E600052F90920FEF73CF806B020460122BDE8C1
:104E700010400221FEF747B900100240000C01402B
:104E80000EB504A207CA8DE807000A216846FFF79D
:104E900083FD0EBDFD000701015B7631305D000032
:104EA00008B504A00421006800906846FFF774FD6F
:104EB00008BD0000FD0001100907090E002804DBF1
:104EC00000F1E02080F80014704700F00F0000F1BE
:104ED000E02080F8141D704740F2013200204FF0AE
:104EE000E04102F025BA0000024A0020110702F05A
:104EF0001FBA000001FDFFFF10B50446D1E9000113
:104F000000F002F8206010BDF8B504460D466A4670
:104F100000F0C6FF00987E30009000281EDC0022C2
:104F200013462046294601F09FFE17D0002140F687
:104F300008004FF0000006462046294601F04EFCCE
:104F4000044640F6080006EA00014FF0000034F085
:104F5000004004BF0220FCF75DFA29E00098FF281A
:104F600028DB002108464FF0000000F44006002234
:104F700013462046294602F075F88CBF002501250E
:104F80000220FCF747FA4FF0FF4446B1002D0CBF5A
:104F90004FF400004FF48000B04218BF084C0421C9
:104FA00008464FF00000002D04BF84F00040F8BD1B
:104FB0002046F8BD20462946BDE8F84001F00EBC69
:104FC000FFFF7F7F10B504460A46D4E90003194667
:104FD00001F004F8C4E9000110BD70B504460025D5
:104FE0006FF02F0608E02068411C2160007805EB77
:104FF000850106EB410145182068007800F0E4FACD
:105000000028F0D1284670BD2DE9FF4F89B016AEBB
:10501000DDF8688096E8B0084FF0FF3622462B4650
:105020002046294601F020FE0ED13246AC4B2046E8
:10503000294602F017F807D332466FF48013204652
:10504000294601F0D5FE0BD2CDF810808DE8B008CE
:1050500009AE96E80F0000F06FF90DB0BDE8F08FD3
:10506000002213462046294601F0C2FE04D2012048
:1050700085F00045079001E0002007905FEA485066
:1050800000D406279749C5F30A56C5F3130C2046EA
:105090004CEA01010022944BA6F2FF3602F024F8FC
:1050A000924A934B01F0E0FE81468A46304601F079
:1050B00074FE904A904B01F0D7FE904A904B01F05D
:1050C000BFFB4A46534601F0BBFB01F009FE064612
:1050D00001F063FE81468B4A8B4B019101F0C4FEC7
:1050E00000228A4B01F0ACFB01F0FAFD059001F0C3
:1050F00054FE874A874B01F0B7FE8246039148462B
:10510000854A864B019901F0AFFE5246039B01F0A0
:10511000EBFF81468A4602460B4601F0A5FECDE92B
:105120000310059840F2FF31000500EB015002909A
:10513000DDE9031000227A4B01F03EFC0022794B9E
:1051400001F07EFB02460B46DDE9031001F034FC62
:105150000022754B01F074FB02460B46DDE903109B
:1051600001F02AFC059108904A46534600204FF072
:10517000804101F0B9FF059B089A01F061FBCDE980
:10518000031001224846514602F0D2F8DDE903320D
:1051900001F012FC0022534B01F052FB0022029B53
:1051A00001F062FE81468A4602460B46009102905B
:1051B0002046294601F01CFE08D20022594B4846E1
:1051C0005146761E01F0F8FB0091029006F1630053
:1051D000C72801D2042000E0052081465FEA08507C
:1051E0001ED5524A524B2046294601F03BFF12D8A9
:1051F0000022504B2046294601F0FAFD0BD2B7425F
:1052000002DDBF1B7F1E00E000274FF0000948F4BD
:1052100080684E4604E01FB15FEA485000D57F1E0B
:10522000CB4502D9ABEB090000E0002082465FEAE3
:10523000887004D5B9F1000F01D04FF0000A3EB1DB
:1052400020462946009B029A01F0B6FB04460D4613
:105250000B980890079808B185F0004528F4006085
:10526000CDE903A08DE8B0000DF1240C9CE80F00FF
:1052700000F062F80446B9F1000F2FD0651C2246F9
:105280005FEA886001D5452000E06520DDE909413D
:105290000C9BA04702AC0523A9F1010200210A20C2
:1052A00084E80F00F00F002E00DA7642CDE90060AE
:1052B000DDE909012A460C9B00F006FA04465FEA84
:1052C000887007D40AE02246DDE90951641C2020D9
:1052D0000C9BA8470898211A5945F4D32046BCE6F0
:1052E000FFFFEF7F0000F03F0000F83F61436F6376
:1052F000A787D23FFB799F501344D33FB3C8608B3D
:10530000288AC63F71A379094F930A400000E03F05
:10531000EF39FAFE422EE63F1655B5BBB16B02409F
:1053200000002C4000002440000018402D431CEBDE
:10533000E2361A3F80842E412DE9FF4F8DB01AAC22
:10534000DDE91D9794E860044FF0FF3800242A46F9
:1053500033462846314601F087FC02D003218FA254
:1053600009E042466FF480132846314601F040FDC3
:1053700009D204218AA2CDE90021CDE902970DAC22
:1053800094E80F0007E14246874B2846314601F07A
:1053900069FE07D2790702D5042184A2EBE7032135
:1053A00084A2E8E70022844B2846314601F05AFEE9
:1053B00006D30022814B2846314601F019FD0BD25D
:1053C0008DE86004CDE903970DAC94E80F00FFF77A
:1053D0001BFE11B0BDE8F08F00200246034602908C
:1053E0002846314601F004FD03D2012086F0004634
:1053F000029078050AD44FF0060A07E005A830218C
:105400000155641CAAF1010A202C04D2DFF8B081F6
:10541000BAF1090FF2D82846314601F061FC834603
:1054200001F0BBFC2A46334601F052FE08EBCA03EA
:105430000393D3E9002301F017FDCDE9000101F04A
:105440007FFC804601F0C0FCDDE9002301F040FE56
:1054500000225C4BCDE9000101F004FE0FD208F1FF
:105460000100804601F0B0FC039BD3E9002301F06A
:10547000F9FD13D84FF000080BF1010B0EE0DDE948
:10548000000100224F4B01F0B3FC07D308F00100EC
:10549000401E10EA080F01D108F10108BAF100001E
:1054A00002D00A2205A92AE0584601F076FC2A46D5
:1054B000334601F00DFEDFF80C8105460E46002252
:1054C000434601F0CFFD06D9002243462846314627
:1054D00001F0C8FD21D25FEACB701ED00BF1010BA9
:1054E0001BE000BFB8FBF2F502FB158330330B5510
:1054F000B8FBF2F3401E641C5FEA030805D0202CC1
:10550000F0D31AE00A55641C00E03022202C14D29B
:10551000401EF7D22E200855641C0A2005A9202C15
:105520000BD29BFBF0F300FB13B230320A559BFB0E
:10553000F0F2641C5FEA020BF1D1B80714D4F8074B
:1055400012D0B9F1000F06D0029907F00C00084301
:1055500001D0A9F10109302005A94C4504D2202C25
:1055600012D20855641CF8E7202C0DD2029808B11D
:105570002D2106E0780701D52B2102E0380703D55D
:10558000202105A80155641C05A903978DE8120286
:105590000DAD95E80F0000F01DF91AE76E616E0081
:1055A000666E692D00000000FFFFEF7F666E692BBD
:1055B00000000000666E690065CDCD4165CDCDC1AE
:1055C000687500080000E03F3038092801D8012044
:1055D00070470020704730380A2801D201207047F8
:1055E000002070472DE9FF5F91468A468346DDE93A
:1055F0000E20DDE91341DDE91167DDF840C05FEA07
:1056000081784FF030051AD45CB15FEAC17808D0D8
:1056100001F00C0858EA0C0803D0641E01E0155490
:10562000401CB84204D22028F9D301E01554401C94
:105630005FEAC17803D0A04201D22028F6D35FEA06
:10564000C16825D55FEA41580AD448B1B84201D0B3
:10565000A04205D1401E03D0102E03D1401E04E00D
:10566000102E02D0022E0AD00EE08E0603D420287F
:105670001ED2782606E020281AD2582602E02028DA
:1056800016D262261654401C202811D21554401CF4
:1056900020280DD2BCF1000F01D02D2506E04D07CA
:1056A00001D52B2502E00D0702D520251554401CFD
:1056B000CDE90020CDE902414A465146584600F066
:1056C00089F804B0BDE8F09F2DE9F04F8FB09946FE
:1056D0008B46DDE91818DDE91C63DDE91A479246BF
:1056E0008646002209B923F01003580507AD00D5FE
:1056F000C9B1B1FBF4F004FB1010C0B20A2801D20A
:10570000303009E05FEA836C02D54FF0410C01E0D4
:105710004FF0610C60440A38B1FBF4F1A854521CFC
:1057200009B1202AE5D3CDF80880CDE90563CDE99C
:105730000052CDE903474B46524659467046FFF7A3
:1057400051FF0FB0BDE8F08F2DE9FF4F8FB01CACBB
:10575000DDE9239594E8030820AC94E8C004002414
:1057600050EA010201D125F010056A050DF11C086F
:1057700002D550EA010217D032463B46FAF712FE34
:10578000D2B20A2A01D2303206E0AB0601D541235B
:1057900000E061231A440A3A08F80420641C50EA25
:1057A000010201D0202CE7D3CDE90084CDF808B068
:1057B000CDE90595CDE9036A0FAF97E80F00FFF734
:1057C00011FF13B0BDE8F08F002801D000F038B809
:1057D000704770472DE9FF5F80460FA8DDF838B0AD
:1057E00090E8C004144691465FEA8A7014D13546A9
:1057F00007E02246641C2020C446039B0199E04731
:105800006D1CBD42F5D307E02246641C761E039B47
:105810001BF806000199C047002EF5D15FEA8A7097
:1058200006D409E02246641C2020039B0199C0474E
:10583000A4EB0900B842F5D304B02046BDE8F09FC0
:1058400001B54FF6FF73012269460248FEF788FC56
:1058500008BD00002C0100202DE9FF4F89B005464E
:105860000A9800249246002800D1F74D75E12528BA
:1058700004D02246641C53460A9933E2491C4FF077
:10588000000808460C9101782B2919D004DC202946
:1058900019D0232904D119E02D290ED0302909D09F
:1058A0000026C8B2FFF790FEB0B10CA8FFF795FB39
:1058B00006461FE048F001010AE048F0020107E057
:1058C00048F0040104E048F0080101E048F010014C
:1058D000401C88460C90D6E70C9801782A2909D1FB
:1058E000169940C91691002E02DA48F00208764255
:1058F000401C0C900C984FF0000B01782E2919D108
:10590000401C0C9048F480680078FFF75DFE20B1E1
:105910000CA8FFF762FB83460CE00C9A10782A284B
:1059200008D1169901C91691002800DC0020521CEC
:1059300083460C920C9801786C290AD004DC682903
:105940000FD06A2919D129E074292AD07A2914D1D3
:1059500027E0401C0C90017848F480786C291DD019
:105960000BE0401C0C90017848F08008682904D1B5
:1059700048F04001401C88460C90007865280CD007
:1059800019DC582829D00FDC252879D0452804D0E7
:10599000462876D047287FF46CAFFFE048F40071CA
:1059A000E8E748F48071E5E7622816D0632869D0FB
:1059B0006428F0D111E0702877D008DC662860D028
:1059C000672873D0692808D06F28E4D105E07328D0
:1059D0006DD0752801D07828DDD1782809D05828D5
:1059E00007D06F2831D0622831D00A2128F0100862
:1059F00002E0102158282CD0692803D0642801D057
:105A000028F00C085FEA485201D528F001086928FF
:105A100022D0642820D05FEA88506CD5169804AB59
:105A2000C01D002283E806080292CDE9076820F035
:105A300007005346F0E80212CDE900121690224604
:105A400028460A99FFF780FEC7E00821D8E702211F
:105A5000D6E748F02008D3E75FEA885028D51698A3
:105A600004AFC01D20F00703F3E8020216930023E1
:105A700087E80A08CDE90768002A04DA012103E073
:105A80002BE173E0ABE000210023029119461B1AC1
:105A9000914101DA114603E00021404261EB02012D
:105AA00053462246CDE90001CAE70CE176E0BDE0AD
:105AB0005FEAC85004D5169A01CA0FE0404215E0CB
:105AC0005FEA486003D5169A12F8040B06E05FEA15
:105AD0000860F0D5169A32F8040B00B21692CDE9A0
