:020000040800F2
:10000000D0190020CD010008DF160008F514000803
:10001000DD160008FF030008F91A000800000000C0
:10002000000000000000000000000000E7160008CB
:100030000104000800000000E5160008E9160008A9
:10004000E7010008E7010008E7010008E7010008F0
:10005000E7010008E7010008E7010008E7010008E0
:10006000E7010008E7010008E7010008E7010008D0
:10007000E7010008E7010008E7010008E7010008C0
:10008000E7010008E7010008E7010008E7010008B0
:10009000E7010008E7010008E7010008E7010008A0
:1000A000E7010008E7010008E7010008E701000890
:1000B000E7010008E7010008E7010008E701000880
:1000C000E7010008E7010008E7010008E701000870
:1000D000E7010008E11A0008E7010008ED1A00082E
:1000E000E7010008E7010008E7010008E701000850
:1000F000E7010008E7010008E7010008E701000840
:10010000E7010008E7010008E7010008E70100082F
:10011000411800084D180008E7010008E701000831
:10012000E7010008E7010008E7010008E70100080F
:1001300000F002F800F03AF80AA090E8000C8244BF
:100140008344AAF10107DA4501D100F02FF8AFF29C
:10015000090EBAE80F0013F0010F18BFFB1A43F0A5
:10016000010318475C3500007C350000103A24BFBD
:1001700078C878C1FAD8520724BF30C830C144BF0C
:1001800004680C607047000000230024002500264E
:10019000103A28BF78C1FBD8520728BF30C148BFEA
:1001A0000B6070471FB51FBD10B510BD00F0EEF815
:1001B0001146FFF7F7FF02F0F9FB00F00CF903B46A
:1001C000FFF7F2FF03BC00F013F900000948804775
:1001D00009480047FEE7FEE7FEE7FEE7FEE7FEE729
:1001E000FEE7FEE7FEE7FEE704480549054A064B41
:1001F000704700004D17000831010008D0050020AD
:10020000D0190020D0150020D015002053EA020C90
:1002100000F069802DE9F04B4FF00006002B1FBF66
:10022000B3FA83F503FA05F424FA05F65E4012BF2B
:100230001643B2FA82F502FA05F4C5F120051EBF95
:1002400022FA05FC44EA0C04203556EA044C4FEA35
:10025000144418BF641C4FF000084FF0000990428E
:1002600071EB030C39D3002919BFB1FA81F701FAF8
:1002700007F6B0FA80F700FA07F6C7F120071EBFAD
:1002800020FA07FC46EA0C062037B6FBF4FCA7EB85
:100290000507103F07F01F0BCBF120060CFA0BFBF4
:1002A0002CFA06F644BFB3460026202FA4BF5E46B4
:1002B0004FF0000B5BEA060C08BF4FF0010B19EB87
:1002C0000B09ABFB027C48EB0608C01B06FB02CC0B
:1002D0000BFB03CC71EB0C01C1E70B460246414618
:1002E0004846BDE8F08B13B54FF000004FF0000119
:1002F000AFF30080BDE81C40704710B5431C02E01E
:1003000010F8011B71B18107FAD14FF0013202C818
:100310008C1A8C4314EAC211F9D0C01A0A0603D011
:10032000C01E10BDC01A10BD0A0401D0801E10BD31
:100330000902FCD0401E10BD4FF0000200B513466C
:1003400094469646203922BFA0E80C50A0E80C50F5
:10035000B1F12001BFF4F7AF090728BFA0E80C50A6
:1003600048BF0CC05DF804EB890028BF40F8042B9F
:1003700008BF704748BF20F8022B11F0804F18BF0C
:1003800000F8012B7047704770477047754600F0C2
:100390002BF8AE4605006946534620F00700854617
:1003A00018B020B5FFF720FFBDE820404FF0000651
:1003B0004FF000074FF000084FF0000B21F007014D
:1003C000AC46ACE8C009ACE8C009ACE8C009ACE890
:1003D000C0098D46704710B50446AFF30080204633
:1003E000BDE81040FFF7EBBE0048704770050020E5
:1003F00001491820ABBEFEE7260002007047FEE769
:10040000704772B6FEE700210180418070470023EB
:10041000038043804160028170470089491CB1FB21
:10042000F0F200FB121080B2704770B504460188EC
:10043000FFF7F3FF61680D5C21882046FFF7EDFFB1
:100440002080284670BD70B50D4604464188FFF7F0
:10045000E4FF608061680D5470BD10B590F8211004
:100460000022022905D00421816380F82020012088
:1004700010BD01680B6823F00E030B6001680B6868
:1004800023F001030B6090F84030C46B012101FAA6
:1004900003F3636080F8211080F82020104610BD1F
:1004A0002DE9F05F90F821100024022903D00421E7
:1004B0008163012485E001680A6822F00E020A6067
:1004C00001680A6822F001020A603F4E3E4FB215F1
:1004D000DFF8F4C0DFF8F090DFF8ECA0DFF8E8B068
:1004E000DFF8E4E00168783F13011502ACF1640C19
:1004F000A9F15009AAF13C0AABF1280BAEF1140E98
:100500004FF48018B14227D9B9420ED0614512D0BC
:1005100049451DD0514518D0594518D0714501D1D4
:10052000424615E0294EB14201D1012210E0274E8A
:100530001436B14201D110220AE0244E2836B142CD
:1005400006D0224A3C32914201D11A4600E02A46A6
:100550001E49091F0A602BE0B94213D0614517D02C
:10056000494522D051451DD059451DD0714501D175
:1005700042461AE0B14202D14FF0807215E0134EAC
:10058000B14201D1012210E0104E1436B14201D126
:1005900010220AE00D4E2836B14206D00B4A3C32FA
:1005A000914201D11A4600E02A46074980394A6043
:1005B000012180F82110002180F82010416B01B149
:1005C00088472046BDE8F09F8000024008040240B2
:1005D000806B704770B5044600F014F90546601C46
:1005E00002D004480078044400F00CF9401BA042FB
:1005F000FAD370BD000000202DE9F84FDFF8C89154
:100600000024A9F1040B23460F2709F1040AABF1DA
:10061000040ED1E00125A54006EA0502AA4276D1E2
:10062000DFF8A8C14E68A6EB0C0866452BD00DDCA0
:10063000032E34D005DC36B3012E19D0022E2FD173
:100640001BE0112E16D0122E2AD119E0B8F5881F02
:1006500019D006DCB8F5803F15D0B8F5801F1FD142
:1006600011E0B8F5001F0ED0B8F5041F18D10AE04C
:10067000CB6815E0CB681B1D12E0CB6808330FE098
:10068000CB680C330CE08B682BB1012B4FF00803C7
:1006900003D0456104E0042302E0056100E000238B
:1006A000FF2A01D8064601E000F104064FEA84055E
:1006B00001D9A5F12005D6F8008007FA05FC28EA43
:1006C0000C0803FA05F548EA0508C6F800804D68ED
:1006D000ED0070D53E4DAE6946F00106AE61AD69E4
:1006E00024F0030605F0010500953A4D06EB050CD4
:1006F000DCF80850A607360F07FA06F825EA0805C1
:10070000DFF8D480404503D14FF0000825E052E0E7
:10071000DFF8C880404502D14FF001081DE0DFF846
:10072000C080404502D14FF0020816E0DFF8B480E7
:10073000404502D14FF003080FE0DFF8AC804045A0
:1007400002D14FF0040808E0DFF8A080404502D154
:100750004FF0050801E04FF0060808FA06F848EAED
:100760000508CCF808804D68D9F80060ED024D46C8
:1007700001D5164300E096432E604D68DAF800601C
:10078000AD02554601D5164300E096432E604D68F4
:10079000DBF80060AD035D4601D5164300E09643EB
:1007A0002E604D68DEF80060ED03754601D51643F6
:1007B00000E096432E60641C0A681646E2407FF40F
:1007C00029AFBDE8F88F00000804014000001110B7
:1007D000001002400000014000080140000C0140F0
:1007E000001001400014014000180140001C0140AD
:1007F0008068084000D0012070470AB1016170474D
:100800000904FBE7014880687047000000000020F1
:10081000024881680278114481607047000000201E
:10082000074810B5016841F010010160032000F095
:1008300075F80F2000F006F800F024F8002010BD35
:100840000020024070B50D4D04464FF47A712878AF
:10085000B1FBF0F00A490968B1FBF0F000F0F0FAE2
:1008600048B9102C07D200222146501E00F036F85D
:1008700000206C6070BD012070BD000000000020F1
:100880000C0000200C4808B5816941F0010181612C
:10089000816901F001010091C16941F08051C1619C
:1008A000C06900F0805000900448416821F0E06188
:1008B00041F00071416008BD00100240000001409D
:1008C000002809DB00F01F0201219140400980004F
:1008D00000F1E020C0F8001170470000F0B40E4BAA
:1008E0001B680C46C3F30223C3F10705042D00D98E
:1008F0000425191D072901D2002300E0DB1E012673
:1009000006FA05F1491E214099409E40761E164088
:100910003143F0BC01F074B90CED00E0064900F081
:10092000070208684FF6FF03184040EA0220034A16
:1009300010430860704700000CED00E00000FA056D
:10094000704700002DE9F0470F46050061D0434E87
:10095000306800F00700B84209D2306820F0070084
:1009600038433060306800F00700B84251D1286841
:100970003B4C810712D5400703D5606840F4E06026
:1009800060602878000703D5606840F460506060BC
:100990006068A96820F0F000084360602878C0070C
:1009A00028D06868012810D02168022810D0890753
:1009B00000292EDA616821F0030101436160FFF72D
:1009C00021FF804641F288390DE021688903EFE775
:1009D0008901EDE7FFF716FFA0EB0801494502D9B1
:1009E0000320BDE8F0876068696800F00C00B0EB98
:1009F000810FEFD1306800F00700B8420BD93068A2
:100A000020F0070038433060306800F00700B8423B
:100A100001D00120E5E72878400705D56068E9683E
:100A200020F4E060084360602878000706D560681D
:100A3000296920F4605040EAC100606000F03EF88F
:100A40006168084AC1F30311515CC8400649086057
:100A500006480068FFF7F6FE0020C2E700200240CB
:100A600000100240563600080C0000200400002050
:100A700001490120C864704700004242044805490A
:100A800000684968044AC1F30221515CC8407047BC
:100A90000C0000200010024066360008044805499A
:100AA00000684968044AC1F3C221515CC8407047DC
:100AB0000C00002000100240663600080E4A516803
:100AC0000E4801F00C03042B11D0082B0FD10C4859
:100AD000C1F38343C903C05C0AD55168084AC1F316
:100AE0004041921E515C054A5043B0FBF1F0704703
:100AF00004494843704700000010024000127A0089
:100B00004636000800093D0010B5044CA0680006F8
:100B100003D5FFF715FF8020A07210BD0010024022
:100B20002DE9F84F040070D02078C04DC00749D09F
:100B30006868C0F38100012807D06868C0F38100AD
:100B4000022809D16868C00306D52868800339D512
:100B500060680028E7D035E06068B0F5803F0BD0D2
:100B600010B1B0F5A02F11D0286820F48030286093
:100B7000286820F4802002E0286840F48030286053
:100B8000606890B1FFF73EFE06460AE0286840F430
:100B900080202860F0E700BFFFF734FE801B642848
:100BA00073D828688003F7D50CE0FFF72BFE0646C4
:100BB00005E000BFFFF726FE801B6428F0D82868F8
:100BC0008003F7D420789A4E80074FF001094FF048
:100BD000000839D5686810F00C0F07D06868C0F3BA
:100BE0008100022809D16868C00306D428688007FC
:100BF00014D52069012808D110E02069B0B1C6F8E9
:100C00000090FFF7FFFD074605E00AE1FFF7FAFD58
:100C1000C01B0228C4D828688007F7D528686169F6
:100C200020F0F80040EAC10028600DE0C6F800801E
:100C3000FFF7E8FD074604E0FFF7E4FDC01B0228CC
:100C400023D828688007F7D4207800072CD5794866
:100C5000A169D9B1C0F80090FFF7D4FD074604E0C0
:100C6000FFF7D0FDC01B02280FD8686A8007F7D5B0
:100C700071484FF4FA510068B0FBF1F0009000BFEA
:100C80000098411E0091FAD20EE080E0C0F800808A
:100C9000FFF7B8FD074604E0FFF7B4FDC01B0228CC
:100CA00075D8686A8007F7D42078400760D5E8696E
:100CB0000027C00008D4E86940F08050E861E86986
:100CC000012700F0805000905C480168C90513D4EA
:100CD0000168834641F480710160FFF793FD82460D
:100CE00006E000BFFFF78EFDA0EB0A0064284ED897
:100CF000DBF80000C005F5D5E06801280AD008B18E
:100D0000052813D0286A20F001002862286A20F004
:100D1000040002E0286A40F001002862E06841F225
:100D2000883B98B1FFF76EFD82460BE0286A40F0E1
:100D300004002862EEE700BFFFF764FDA0EB0A01A4
:100D400059455AD8286A8007F6D50CE0FFF75AFDB6
:100D5000824605E0FFF756FDA0EB0A0159454CD845
:100D6000286A8007F6D41FB1E86920F08050E86156
:100D7000E06988B36968C1F38101022944D002287F
:100D8000C6F8608004D0FFF73DFD044638E034E04B
:100D9000FFF738FD074604E0FFF734FDC01B0228CB
:100DA0002BD828688001F7D4206AB0F5803F05D1A0
:100DB0006868A16820F4003008436860D4E908013D
:100DC0000843696821F4741108436860C6F86090AC
:100DD000FFF718FD044606E025E000BFFFF712FD0F
:100DE000001B022809D828688001F7D51BE000BF46
:100DF000FFF708FD001B022802D90320BDE8F88F89
:100E000028688001F4D40EE00128F7D06868226ACF
:100E100000F48031914204D1616A00F4701088427C
:100E200001D00120EAE70020E8E7000000100240BE
:100E300000004242800442420C000020007000404A
:100E400010B5401EB0F1807F01D3012010BD4FF0DE
:100E5000E02460610F21601700F0D2FE0020A06145
:100E600007202061002010BD704770B5044620683F
:100E70000C3050E8001F21F4907140E80012002A65
:100E8000F5D12068143050E8001F21F0010140E83E
:100E90000012002AF5D1206B012809D120680C30FE
:100EA00050E8001F21F0100140E80012002AF5D19F
:100EB000206840694FF00005400615D520681430C1
:100EC00050E8001F21F0400140E80012002AF5D14F
:100ED000E06B48B14563E06BFFF7BFFA20B1E06B10
:100EE000FFF776FB202806D0E585202084F8420015
:100EF0002563002070BD10206064032070BD704722
:100F0000F8B5016804460868CA684B6910F00F0F0D
:100F10004FF0000559D003F0010602F490773743F3
:100F200065D0C10705D0D10503D5616C41F0010141
:100F30006164410705D5D90703D0616C41F0020116
:100F40006164810705D5D90703D0616C41F00401C4
:100F50006164010707D502F02001314303D0616CC1
:100F600041F008016164616C00293AD0800604D523
:100F7000900602D5204600F09EFC20684069616C16
:100F8000C0F38010090700D460B3204600F06CFC69
:100F900020684069400621D52068143050E8001FC1
:100FA00021F0400140E80012002AF5D1E06BA8B121
:100FB0006D494163E06BFFF773FA002811D0E06BD5
:100FC000416B01B0BDE8F040084783060FD593069A
:100FD0000DD52046BDE8F84000F06DBC2046FFF777
:100FE0008EFFF8BD2046FFF78AFF6564F8BD266BCB
:100FF0002023012E7CD1C6067AD5D60678D508687E
:101000004868009048694FF00206400640D5E16B01
:10101000086840680004000CE8D0A28D8242E5D93F
:10102000E085886920282DD020680C3050E8001F0A
:1010300021F4807140E80012002AF5D120681430B4
:1010400050E8001F21F0010140E80012002AF5D10C
:101050002068143050E8001F21F0400140E80012E1
:10106000002AF5D184F84230256320680C3050E81E
:10107000001F21F0100140E80012002AF5D1E06BBA
:10108000FFF7EBF96663A08DE18D401A81B22AE08B
:10109000A08DE18D401A81B2E08D0028A6D00029F4
:1010A000A4D022680C3252E8000F20F4907042E87D
:1010B0000007002FF5D12068143050E8002F22F0EF
:1010C000010240E80027002FF5D184F84230256363
:1010D00020680C3050E8002F22F0100240E8002376
:1010E000002BF5D166632046FFF7BEFEF8BDFFE793
:1010F00005062BD5150629D594F841002128F5D1F0
:10110000A068B0F5805F01D12069B0B1206A411CB0
:101110002162216800784860E08C401E0004000CC9
:10112000E084E3D12068C16821F08001C1602068BB
:10113000C16841F04001C160D8E7206A0088C0F36F
:1011400008004860206A801C2062E5E74006CDD593
:101150005006CBD5CA68204622F04002CA6084F807
:10116000413000F0C6F9C1E75918000870B5040015
:1011700004D094F84100002510B106E0012070BDB4
:1011800084F84050204600F023F8242084F84100E1
:101190002068C16821F40051C160204600F0ECFBDA
:1011A0002068016921F4904101612068416921F0C2
:1011B0002A0141612068C16841F40051C160656441
:1011C000202084F8410084F842006563002070BD4F
:1011D000F0B585B00024009401940294039407684C
:1011E0005C495D48DFF868C10D1502220323C6146F
:1011F000674524D1CF6947F40027CF61CF6907F451
:10120000002704978F6947F010078F61896901F003
:101210001001CDE90331CDE9005269460546FFF7DB
:10122000EBF9CDE90064694628460294FFF7E4F93A
:10123000002211463420FFF751FB342031E0DFF863
:101240001CC1674531D1CD6945F48015CD61CD69AB
:1012500005F4801504958D6945F010058D618D6943
:1012600005F0100504958D6945F020058D618969AB
:10127000039301F0200104914FF48051CDE9001255
:101280006946FFF7B9F90420CDE9000469463448FE
:101290000294FFF7B1F9002211463520FFF71EFB3B
:1012A0003520FFF70DFB05B0F0BD2E48874226D153
:1012B000886940F480408861886900F48040049027
:1012C000886940F0040088618869274E00F00400B6
:1012D00004907815CDE90002694603933046FFF784
:1012E0008BF9CDE90054694630460294FFF784F942
:1012F000002211462520FFF7F1FA2520D1E71B48EF
:101300008742D0D1C86940F48020C861C86900F420
:1013100080200490886940F0080088618869CDE9E0
:10132000005200F00800CDE90330114D694628460F
:10133000FFF762F9CDE90064694628460294FFF799
:101340005BF9002211462720FFF7C8FA2720A8E7FB
:10135000004C0040001002400010014000500040CE
:1013600000140140003801400008014000480040DE
:10137000000C014090F84230202B01D00220704731
:1013800021B11AB10023036300F052BB0120704762
:1013900010B500682649274C88420CD1012221460D
:1013A0002548FFF7E7FF254800F0ADF800283ED1BB
:1013B0002178224837E0224988420FD11D49012275
:1013C000491C2048FFF7D6FF1C480C3000F09BF862
:1013D00000282CD1194861780C3024E01A49884241
:1013E0000FD114490122891C1848FFF7C3FF134885
:1013F000183000F088F8002819D11048A17818306A
:1014000011E01349884212D10A490122C91C11482E
:10141000FFF7B0FF0948243000F075F8002806D126
:101420000648E1782430BDE81040FFF70CB810BD45
:101430000038014010000020B000002040050020CE
:1014400000480040F8000020004C00402000002030
:1014500000500040680000202DE9F843044690F851
:1014600041001F4616460D46202802D00220BDE846
:10147000F8837DB176B100206064212084F84100BA
:10148000FFF7C0F9A6848046E684A068B0F5805FC7
:1014900002D003E00120EAE7206910B12E460025C2
:1014A0000EE000260CE08021204600F0DCFAA0B916
:1014B000AEB116F8010B21684860E08C401EE08454
:1014C000E08C43464FF0000200970028EBD14FF02C
:1014D0004001204600F0C7FA30B10320C7E735F8D5
:1014E000020BC0F30800E6E7202084F8410000204A
:1014F000BDE77047FEE701884088814201D10120A5
:1015000070470020704710B504464188FEF785FFFC
:101510002188884201D1012010BD002010BD0000AB
:1015200030B585B000241448019402940394816975
:1015300041F010018161816901F01001049181691C
:1015400041F02001816180694FF4005500F02000D6
:101550000490694600950948FFF74EF86946084827
:101560000095FFF749F80748012104808170C47095
:10157000047105B030BD00000010024000100140B1
:10158000001401401A00002010B501F0D5F90749F8
:1015900048708A78824201D0887001E0002048704B
:1015A00048780249891D087110BD00001400002010
:1015B000114808B5816941F010018161816901F02C
:1015C00010010091816941F008018161816901F098
:1015D00008010091816941F004018161816901F094
:1015E00004010091816941F020018161806900F06E
:1015F0002000009008BD0000001002400C4810B50B
:101600000A4901604FF4E1314160002181600C2200
:10161000C160C0E904128161C161FFF7A7FD002824
:1016200003D0BDE81040FEF7ECBE10BD004C0040FA
:10163000200000200C4810B50A4901604FF4E13148
:101640004160002181600C22C160C0E90412816107
:10165000C161FFF78BFD002803D0BDE81040FEF705
:10166000D0BE10BD00500040680000200C4810B5EE
:101670000A4901604FF4E1314160002181600C2290
:10168000C160C0E904128161C161FFF76FFD0028EC
:1016900003D0BDE81040FEF7B4BE10BD00380140D5
:1016A000B00000200C4810B50A4901604FF4E13148
:1016B0004160002181600C22C160C0E90412816197
:1016C000C161FFF753FD002803D0BDE81040FEF7CD
:1016D00098BE10BD00480040F8000020FEE7FFF76C
:1016E00013FAFEE770477047FFF792B830B58FB036
:1016F00028216846FEF720FE14210AA8FEF71CFEEA
:1017000001210804CDE9001000240294022504916F
:10171000CDE907504FF4E01009906846FFF700FA52
:1017200008B172B6FEE70F20CDE90A054FF48060DC
:10173000CDE90C4002210AA80E94FFF703F908B185
:1017400072B6FEE7FFF794F90FB030BD70470000A6
:10175000074910B54FF4807201F58060FEF757FE1F
:10176000BDE81040012203490348FFF703BE000013
:101770004001002010000020B00000202DE9F041C1
:10178000074600250E462C461548FFF7B4FEC0B1AB
:101790000020BDE8F0811248FFF7ADFE30B1641CB7
:1017A000E4B20F48FFF7AFFE68B907E000240C4829
:1017B000FEF73BFE78556D1CADB2F2E70020FEF758
:1017C00009FFB442E7D30648FEF71DFE0548FFF7C0
:1017D0004CFB012204490348FFF7CCFD2846D8E71B
:1017E00040050020B0000020100000200A460146FD
:1017F0004FF6FF730148FFF72FBE0000B000002036
:10180000074910B54FF4807201F54370FEF7FFFDF4
:10181000BDE81040012203490348FFF7ABBD0000BB
:101820004002002011000020F80000200A46014676
:101830004FF6FF730148FFF70FBE0000F8000020CD
:101840000148FFF75DBB0000200000200148FFF7C2
:1018500057BB00006800002010B5406A0021C18518
:10186000C184FFF74CFB10BD01680C3151E8002F1B
:1018700022F4907241E80023002BF5D10168143165
:1018800051E8002F22F0010241E80023002BF5D19E
:10189000016B012909D101680C3151E8002F22F0B8
:1018A000100241E80023002BF5D1202180F84210DE
:1018B00000210163704708B590F84210222901D039
:1018C000022008BD82684FF480539A4201D1016919
:1018D00021B1816A9A421BD04AB10AE00268816A4A
:1018E0005268C2F308020A80816A891C08E0026912
:1018F00072B10268526802F07F020A70816A491C64
:101900008162C18D491E0904090CC18503D01BE009
:1019100002685268F1E70168CA6822F02002CA60D2
:101920000168CA6822F48072CA6001684A6922F0BC
:1019300001024A61202180F8421000214163026BBC
:10194000012A03D0FFF724FD002008BD01630168D0
:101950000C3151E8002F22F0100241E80023002B47
:10196000F5D101680A68D20602D50A684968009173
:10197000818DFFF779FAE7E770B5044600680169E1
:10198000E26821F44051114301612169A0680843D4
:10199000616908432168CA6841F20C639A430243B3
:1019A000CA6020684169A26921F440711143416114
:1019B0001E492068884202D1FFF770F801E0FFF766
:1019C0005DF800EBC00101EB00126068642180004B
:1019D000B2FBF0F3B3FBF1F36FF018067343B2FB05
:1019E000F0F5B2FBF0F605EB8305322303EB0515AA
:1019F000B5FBF1F5B6FBF1F605F0F00505EB0615C4
:101A0000B2FBF0F6B2FBF0F0B0FBF1F06FF01802B1
:101A1000504306EB800003EB0010B0FBF1F02168AF
:101A200000F00F002844886070BD000000380140BD
:101A300081628285C28500214164222180F84210A2
:101A4000016921B10168CA6842F48072CA60016804
:101A50004A6942F001024A610068C16841F0200110
:101A6000C160002070472DE9F041984617460E46A8
:101A70000446069D27E0681C25D02DB1FEF7C2FE66
:101A8000A0EB0800A8421ED920680C3050E8001FC7
:101A900021F4D07140E80012002AF5D120681430FA
:101AA00050E8001F21F0010140E80012002AF5D1A2
:101AB000202084F8410084F84200002084F840008F
:101AC0000320BDE8F0812068006836EA000004D0F9
:101AD0000020B842CFD00020F3E70120F9E7000052
:101AE0000148FFF70DBA0000B00000200148FFF7E1
:101AF00007BA0000F8000020FEE770B5C0B0044649
:101B0000FEF7FBFBFD228DF800200022C0B28DF80D
:101B10000120811CC9B201228DF802108DF803202A
:101B20008DF8042000226B4605E09E1814F8015B36
:101B3000521C7571D2B28242F7D31846C91CFFF706
:101B400075FE40B070BD000010B586B00020029058
:101B500003901148816941F00801816180690F4C4F
:101B600000F00800049002200090012001906946D6
:101B70002046FEF741FD002202212046FEF73DFEF1
:101B80000920FEF727FD06B020460122BDE81040DF
:101B90000221FEF732BE000000100240000C01409E
:101BA0000EB504A207CA8DE807000A216846FFF7B0
:101BB0003DFE0EBDFD000701015B7631305D00008A
:101BC0000EB504A207CA8DE8070009216846FFF791
:101BD0002DFE0EBDFD000601015B76365D000000A6
:101BE0000EB504A207CA8DE8070009216846FFF771
:101BF0001DFE0EBDFD000601015B76335D00000099
:101C00000907090E002804DB00F1E02080F8001429
:101C1000704700F00F0000F1E02080F8141D7047BD
:101C200070B5044600256FF02F0608E02068411CBF
:101C30002160007805EB850106EB4101451820681D
:101C4000007800F0E5FA0028F0D1284670BD0000C9
:101C50002DE9FF4F89B016AEDDF8688096E8B00830
:101C60004FF0FF3622462B462046294601F048F920
:101C70000ED13246AC4B2046294601F03FFB07D33C
:101C800032466FF480132046294601F0FDF90BD24D
:101C9000CDF810808DE8B00809AE96E80F0000F08E
:101CA0006FF90DB0BDE8F08F00221346204629469B
:101CB00001F0EAF904D2012085F00045079001E027
:101CC000002007905FEA485000D406279749C5F3E3
:101CD0000A56C5F3130C20464CEA01010022944B2E
:101CE000A6F2FF3601F04CFB924A934B01F008FA42
:101CF00081468A46304601F09CF9904A904B01F0AB
:101D0000FFF9904A904B00F0E7FE4A46534600F038
:101D1000E3FE01F031F9064601F08BF981468B4A6A
:101D20008B4B019101F0ECF900228A4B00F0D4FEBC
:101D300001F022F9059001F07CF9874A874B01F008
:101D4000DFF9824603914846854A864B019901F0A6
:101D5000D7F95246039B01F013FB81468A4602469F
:101D60000B4601F0CDF9CDE90310059840F2FF31A3
:101D7000000500EB01500290DDE9031000227A4BD0
:101D800000F066FF0022794B00F0A6FE02460B46EB
:101D9000DDE9031000F05CFF0022754B00F09CFEB3
:101DA00002460B46DDE9031000F052FF0591089052
:101DB0004A46534600204FF0804101F0E1FA059B6E
:101DC000089A00F089FECDE90310012248465146E9
:101DD00001F0F2FBDDE9033200F03AFF0022534B41
:101DE00000F07AFE0022029B01F08AF981468A46C1
:101DF00002460B46009102902046294601F044F924
:101E000008D20022594B48465146761E00F020FF6A
:101E10000091029006F16300C72801D2042000E07F
:101E2000052081465FEA08501ED5524A524B204693
:101E3000294601F063FA12D80022504B2046294669
:101E400001F022F90BD2B74202DDBF1B7F1E00E07A
:101E500000274FF0000948F480684E4604E01FB1A7
:101E60005FEA485000D57F1ECB4502D9ABEB090095
:101E700000E0002082465FEA887004D5B9F1000FC7
:101E800001D04FF0000A3EB120462946009B029A3D
:101E900000F0DEFE04460D460B980890079808B146
:101EA00085F0004528F40060CDE903A08DE8B0007E
:101EB0000DF1240C9CE80F0000F062F80446B9F123
:101EC000000F2FD0651C22465FEA886001D54520AF
:101ED00000E06520DDE909410C9BA04702AC052329
:101EE000A9F1010200210A2084E80F00F00F002E62
:101EF00000DA7642CDE90060DDE909012A460C9B53
:101F000000F0FFF904465FEA887007D40AE0224631
:101F1000DDE90951641C20200C9BA8470898211A70
:101F20005945F4D32046BCE6FFFFEF7F0000F03FA9
:101F30000000F83F61436F63A787D23FFB799F5052
:101F40001344D33FB3C8608B288AC63F71A3790975
:101F50004F930A400000E03FEF39FAFE422EE63F81
:101F60001655B5BBB16B024000002C400000244068
:101F7000000018402D431CEBE2361A3F80842E41AE
:101F80002DE9FF4F8DB01AACDDE91D9794E8600490
:101F90004FF0FF3800242A4633462846314600F0E9
:101FA000AFFF02D003218FA209E042466FF48013F5
:101FB0002846314601F068F809D204218AA2CDE909
:101FC0000021CDE902970DAC94E80F0007E14246ED
:101FD000874B2846314601F091F907D2790702D59F
:101FE000042184A2EBE7032184A2E8E70022844BCA
:101FF0002846314601F082F906D30022814B28465B
:10200000314601F041F80BD28DE86004CDE9039729
:102010000DAC94E80F00FFF71BFE11B0BDE8F08F88
:1020200000200246034602902846314601F02CF873
:1020300003D2012086F00046029078050AD44FF0C2
:10204000060A07E005A830210155641CAAF1010A1F
:10205000202C04D2DFF8B081BAF1090FF2D828465B
:10206000314600F089FF834600F0E3FF2A463346FD
:1020700001F07AF908EBCA030393D3E9002301F0D6
:102080003FF8CDE9000100F0A7FF804600F0E8FF2F
:10209000DDE9002301F068F900225C4BCDE9000185
:1020A00001F02CF90FD208F10100804600F0D8FFB2
:1020B000039BD3E9002301F021F913D84FF0000866
:1020C0000BF1010B0EE0DDE9000100224F4B00F0A7
:1020D000DBFF07D308F00100401E10EA080F01D112
:1020E00008F10108BAF1000002D00A2205A92AE08D
:1020F000584600F09EFF2A46334601F035F9DFF8D6
:102100000C8105460E460022434601F0F7F806D939
:10211000002243462846314601F0F0F821D25FEA1A
:10212000CB701ED00BF1010B1BE000BFB8FBF2F52A
:1021300002FB158330330B55B8FBF2F3401E641CD1
:102140005FEA030805D0202CF0D31AE00A55641C7E
:1021500000E03022202C14D2401EF7D22E20085549
:10216000641C0A2005A9202C0BD29BFBF0F300FB7A
:1021700013B230320A559BFBF0F2641C5FEA020B8B
:10218000F1D1B80714D4F80712D0B9F1000F06D076
:10219000029907F00C00084301D0A9F10109302091
:1021A00005A94C4504D2202C12D20855641CF8E72E
:1021B000202C0DD2029808B12D2106E0780701D518
:1021C0002B2102E0380703D5202105A80155641C06
:1021D00005A903978DE812020DAD95E80F0000F0F8
:1021E00016F91AE76E616E00666E692D0000000038
:1021F000FFFFEF7F666E692B00000000666E6900CE
:1022000065CDCD4165CDCDC1703600080000E03F01
:102210003038092801D801207047002070472DE987
:10222000FF5F91468A468346DDE90E20DDE91341D2
:10223000DDE91167DDF840C05FEA81784FF03005D5
:102240001AD45CB15FEAC17808D001F00C0858EAF2
:102250000C0803D0641E01E01554401CB84204D29F
:102260002028F9D301E01554401C5FEAC17803D05F
:10227000A04201D22028F6D35FEAC16825D55FEAE3
:1022800041580AD448B1B84201D0A04205D1401EFD
:1022900003D0102E03D1401E04E0102E02D0022ED7
:1022A0000AD00EE08E0603D420281ED2782606E03F
:1022B00020281AD2582602E0202816D26226165468
:1022C000401C202811D21554401C20280DD2BCF1EE
:1022D000000F01D02D2506E04D0701D52B2502E08A
:1022E0000D0702D520251554401CCDE90020CDE96D
:1022F00002414A465146584600F089F804B0BDE80C
:10230000F09F2DE9F04F8FB099468B46DDE9181804
:10231000DDE91C63DDE91A4792468646002209B9C9
:1023200023F01003580507AD00D5C9B1B1FBF4F097
:1023300004FB1010C0B20A2801D2303009E05FEA75
:10234000836C02D54FF0410C01E04FF0610C60440A
:102350000A38B1FBF4F1A854521C09B1202AE5D384
:10236000CDF80880CDE90563CDE90052CDE90347FA
:102370004B46524659467046FFF751FF0FB0BDE835
:10238000F08F2DE9FF4F8FB01CACDDE9239594E869
:10239000030820AC94E8C004002450EA010201D1F3
:1023A00025F010056A050DF11C0802D550EA01025E
:1023B00017D032463B46FDF729FFD2B20A2A01D296
:1023C000303206E0AB0601D5412300E061231A4418
:1023D0000A3A08F80420641C50EA010201D0202CBB
:1023E000E7D3CDE90084CDF808B0CDE90595CDE976
:1023F000036A0FAF97E80F00FFF711FF13B0BDE8B6
:10240000F08F002801D000F039B8704770472DE9EF
:10241000FF5F80460FA8DDF838B090E8C00414468E
:1024200091465FEA8A7014D1354607E02246641C63
:102430002020C446039B0199E0476D1CBD42F5D3A3
:1024400007E02246641C761E039B1BF806000199D8
:10245000C047002EF5D15FEA8A7006D409E0224613
:10246000641C2020039B0199C047A4EB0900B842DB
:10247000F5D304B02046BDE8F09F000001B54FF64B
:10248000FF73012269460248FEF7E6FF08BD00001F
:10249000B00000202DE9FF4F89B005460A980024BE
:1024A0009246002800D1F74D75E1252804D0224638
:1024B000641C53460A9933E2491C4FF00008084651
:1024C0000C9101782B2919D004DC202919D023295B
:1024D00004D119E02D290ED0302909D00026C8B228
:1024E000FFF796FEB0B10CA8FFF79AFB06461FE077
:1024F00048F001010AE048F0020107E048F0040159
:1025000004E048F0080101E048F01001401C884652
:102510000C90D6E70C9801782A2909D1169940C960
:102520001691002E02DA48F002087642401C0C9008
:102530000C984FF0000B01782E2919D1401C0C90FB
:1025400048F480680078FFF763FE20B10CA8FFF71D
:1025500067FB83460CE00C9A10782A2808D116995C
:1025600001C91691002800DC0020521C83460C9201
:102570000C9801786C290AD004DC68290FD06A29EC
:1025800019D129E074292AD07A2914D127E0401CD6
:102590000C90017848F480786C291DD00BE0401C29
:1025A0000C90017848F08008682904D148F0400177
:1025B000401C88460C90007865280CD019DC5828FF
:1025C00029D00FDC252879D0452804D0462876D09C
:1025D00047287FF46CAFFFE048F40071E8E748F467
:1025E0008071E5E7622816D0632869D06428F0D1AD
:1025F00011E0702877D008DC662860D0672873D097
:10260000692808D06F28E4D105E073286DD07528BB
:1026100001D07828DDD1782809D0582807D06F2834
:1026200031D0622831D00A2128F0100802E01021B0
:1026300058282CD0692803D0642801D028F00C0831
:102640005FEA485201D528F00108692822D06428A1
:1026500020D05FEA88506CD5169804ABC01D0022CC
:1026600083E806080292CDE9076820F00700534688
:10267000F0E80212CDE900121690224628460A9987
:10268000FFF77FFEC7E00821D8E70221D6E748F030
:102690002008D3E75FEA885028D5169804AFC01DFC
:1026A00020F00703F3E802021693002387E80A08E4
:1026B000CDE90768002A04DA012103E02BE173E089
:1026C000ABE000210023029119461B1A914101DA67
:1026D000114603E00021404261EB020153462246CD
:1026E000CDE90001CAE70CE176E0BDE05FEAC85041
:1026F00004D5169A01CA0FE0404215E05FEA48602F
:1027000003D5169A12F8040B06E05FEA0860F0D5CC
:10271000169A32F8040B00B21692CDE9021BCDE9ED
:102720000468C10F0028E7DD53462246CDE90001C9
:1027300029E05FEAC8500CD5CDE9021BCDE9046859
:1027400000211698534604C8CDE900211690224670
:1027500019E05FEA486003D5169A12F8040B08E006
:10276000169A5FEA086003D532F8040B80B200E0E5
:1027700001CA1692CDE9021B0021CDE90001CDE985
:1027800004685346224628460A99FFF7BAFD42E0FC
:102790000C98401C0C900C99087800287FF485AEAA
:1027A000544571D22246BFE0462801D148F02008A6
:1027B0001698CDF808B0C01DCDE9036820F00700D9
:1027C0005346F0E80212CDE9001216902246284640
:1027D0000A99FFF7D5FB1EE0672801D0472801D1F1
:1027E00048F40068452801D0472801D148F0200866
:1027F0001698CDF808B0C01DCDE9036820F0070099
:102800005346F0E80212CDE90012169022462846FF
:102810000A99FFF71DFA0446BAE701275FEA8870B4
:1028200006D509E02246641C534620200A99A84791
:1028300038467F1CB042F5D316992246641C11F825
:10284000040B169153460A99A8475FEA887006D48C
:102850009EE72246641C534620200A99A847384622
:102860007F1CB042F5D393E7169850F8049B16905E
:102870004B46BBF1000001D0014601E04FF0FF31B3
:10288000484603E00D2400084CE0401C02780AB1E1
:10289000491EFAD2C71A5FEA485003D558465F4529
:1028A00000D307465FEA887006D512E02246641C12
:1028B000534620200A99A84738467F1CB042F5D3DA
:1028C00007E000BF224609F10109641C53460A993A
:1028D000A84799F8000028B15FEA4851F2D5BBF14A
:1028E000010BEFD25FEA887006D451E72246641CE0
:1028F000534620200A99A84738467F1CB042F5D39A
:1029000046E7082148F021001023CDE90410CDE965
:10291000023B002115E72246641C534625200A99F4
:10292000A84735E7AAF10102534600200A99A847B3
:102930000DB02046BDE8F08F70B54FF4005500246F
:1029400029461748FDF754FF012800D001242946E5
:102950001448FDF74DFF144A054600200123911D40
:10296000012D01D0022400E014B11578A54203D056
:102970001470908008800EE00D886D1C0D80958885
:10298000052D06D90CB1887000E08B70CC70204604
:1029900070BD6D1C95808B70C870002070BD0000EC
:1029A000001001400014014014000020C0B0FDF7E9
:1029B00037FFFEF79BFEFEF7FBFDFEF757FEFEF727
:1029C0001DFEFEF737FEFEF76DFEFEF7C1FEFEF7B9
:1029D00017FFFEF7A5FDFFF7B7F840F2E730FDF768
:1029E000F9FDFFF7DDF8FFF7EBF8FFF7F9F81FA0A7
:1029F000FFF783F822A000F05FF8012403260321EB
:102A00006846FEF7BBFE010002D06846FEF7EEFE08
:102A1000FEF7BAFD050025D001461EA000F04CF8D7
:102A200094FBF6F006FB1040012801D1FFF7B8F83F
:102A300094FBF6F006FB1040022801D1FFF7C0F826
:102A400094FBF6F006FB104008B9FFF7C9F8012D1A
:102A500002D0022D02D004E011A000E013A0FFF785
:102A60004CF8641C0020FDF7B5FDC8E7D3D0B8A32F
:102A7000D6AED6DDB8A3D6DDBBB6D3ADC4FA000062
:102A8000D4C6B2A5B1A8B4F2D3A1CFB5CDB30D0AC7
:102A9000000000004B45592564B0B4CFC20D0A00B8
:102AA000B0B4BCFC31D2D1B0B4CFC200B0B4BCFC25
:102AB00032D2D1B0B4CFC2000FB41CB505A800907B
:102AC0004FF0FF3201A90348049BFFF7E3FC1CBC55
:102AD0005DF814FB0324000810B591EA030F48BF0A
:102AE00083F0004300F15484841A71EB030C05D287
:102AF000121943EB0C03001B61EB0C01DFF824E11E
:102B00004FEA1154A4EB135C1EEA430F18BF9EEA70
:102B1000445F73D023EA0E03DCF1200E21EA045156
:102B200043F4801332D322FA0CFE10EB0E0023FA8A
:102B30000CFE41EB0E01CCF1200E03FA0EFE10EB61
:102B40000E0051F10001B1F5801FCCF1200E32D200
:102B500001EB045112FA0EF2BDE8104058BF704765
:102B6000401C38BF5FEA420218BF7047002814BFFC
:102B700020F0010041F100014FEA410313F5001F6D
:102B800038BF7047A1F1C04100F0B2BB012A43EB4E
:102B90000302ACF1200CDCF11F0E32BF4FF0000E2F
:102BA00023FA0CF310EB030041EB0451B4EB115F7B
:102BB000D0D0A1EB045101F5801149085FEA300043
:102BC00001EB04510ED350F1000038BF12FA0EFE93
:102BD00008D1BDE81040C9E7401C38BF5FEA420297
:102BE000CAD1C3E7BDE810404FEA410313F5001F07
:102BF00038BF7047A1F1C04100F07ABB9EEA445F44
:102C000008D011EA5E0FBDE8104004BF01F000419A
:102C100000207047BDE8104070B500F01BFB00BFFE
:102C200064FBBE3E0000E0FF02494FF0000000F0F0
:102C300091BC00BF0000F87F491058BFC1F140416E
:102C40005B1058BFC3F140438B42EFF300807047E5
:102C50002DE9C04130B4DFF8A0C23CEA111418BF1E
:102C60003CEA131400F0EC8081EA03051CEA11141D
:102C700044EAD57418BF1CEA131500F0C780A4EB12
:102C800005044FF0004545EAC12145EAC32341EA66
:102C9000505143EA525304F17F74994204F50034D1
:102CA0004FEAC0204FEAC22208BF904200F09C8049
:102CB0004FEA13650FF24016765D4FEA134506FBA7
:102CC00005F7C7F1807706FB07F74FEAD737A7FB71
:102CD00003687642C8F58038A7FB06CE38BFA8F156
:102CE000010807FB08E64FF0000EA6FB028CE6FB8E
:102CF00003CEDCF1000CCEF1004E38BFAEF1010E78
:102D0000A6FB0C584FF000074FF00005E6FB0E87BE
:102D1000A1FB08C6A0FB07CE16EB0E0645F1000589
:102D2000E1FB076515F1E04E7EBFA4F580345FEA54
:102D300046066D4116F1800745F100054FEA172759
:102D40004FEA066647EA0567A6F1DE46B6F1805F00
:102D50004FEA15251FD9384624F0010C05EBC47144
:102D6000BCF1FE6F01EB0C1102D8F0BCBDE8008194
:102D700024425CBF01F5801E9EEAC47F02D4F0BCF1
:102D8000BDE80081244238D4F0BCA1F1C041BDE8C7
:102D9000004100F0ADBA4FEAD22242EA43524FEA74
:102DA000D323A7FB02864FEAD02040EA415007FB1D
:102DB00003661EEA0E0F4FEAD12105FB026658BFDB
:102DC000A6EB0056B6EB00564FEA520E4EEAC37E13
:102DD00018EB0E0E56EB530EBDD518EB02085E41F4
:102DE0007F1C55F10005B6E74FF480154FF0000742
:102DF0004FF000064FF00008ADE7F0BC4FF00000C8
:102E000001F1C04101F00041BDE8008111EA0C1F51
:102E10000CEA131500D00CE013EA0C1F00F025801B
:102E20004FF00000F0BC81EA030101F00041BDE871
:102E30000081F0BCBDE8004181EA030100F058BA0E
:102E4000F0BCBDE8004170B500F004FA097EFC3E1C
:102E500000F007B881EA03014FF0000001F00041E3
:102E6000704781EA030100F043BAF0BCBDE80041BD
:102E70004FF0000021497047FFFDFBF9F7F5F4F230
:102E8000F0EEEDEBE9E8E6E4E3E1E0DEDDDBDAD805
:102E9000D7D5D4D3D1D0CFCDCCCBCAC8C7C6C5C463
:102EA000C2C1C0BFBEBDBCBBBAB9B8B7B6B5B4B37A
:102EB000B2B1B0AFAEADACABAAA9A8A8A7A6A5A465
:102EC000A3A3A2A1A09F9F9E9D9C9C9B9A99999829
:102ED0009797969595949393929191908F8F8E8ECC
:102EE0008D8C8C8B8B8A8989888887878685858459
:102EF00084838382828181800000FF070000F87F45
:102F000051EA030C17D41CF5801F58BFBCF5801F75
:102F100000F10680994218BF704708BF9042704781
:102F200007D711F5801F58BF13F5801F19D4994298
:102F30007047894270471CF5801F08D5BCF5801F7B
:102F4000F7D58B4218BF704708BF824270474FF4D5
:102F5000001C1CEB410F38BF1CEB430F01D28B420E
:102F6000704770B500F076F9922449004FF0005197
:102F70004FF08053FFF760BE4FEA41034FEA5353CF
:102F8000A3F58063D3F11E03C8BFD3F1210C0CDD80
:102F90004FF0004242EAC12242EA505232FA03FCA8
:102FA0008CEAE17CACEBE1707047102BC4BF0020D1
:102FB000704703F5787CBCF1FF3F04D06FF000420E
:102FC00082EA2100704770B500F044F949922480EC
:102FD00000207047F2E700004FEA1153A3F5806329
:102FE000D3F11E03A8BFD3F1200C08DB4FF0004241
:102FF00042EAC12252EA505232FA03F070470942C3
:103000000BD4102BC4BF0020704703F5787CBCF1B3
:10301000FF3F05D04FF0FF3070474FF00000704782
:1030200070B500F017F900BF499224800020704766
:10303000F0E710F0004248BF4042B0FA80F310FAC7
:1030400003F10AD0C3F11D0303F580634FEA415039
:1030500002EB035202EBD12170474FF000007047A2
:10306000B0FA80F310FA03F10AD0C3F11D0303F59F
:1030700080634FEA41504FEA035202EBD12170477F
:103080004FF000007047000051EA030C17D41CF504
:10309000801F58BFBCF5801F00F10680994218BF01
:1030A000704708BF9042704707D711F5801F58BF7F
:1030B00013F5801F19D499427047894270471CF557
:1030C000801F08D5BCF5801FF7D58B4218BF70470D
:1030D00008BF824270474FF4001C1CEB410F38BF01
:1030E0001CEB430F01D28B42704770B500F0B2F871
:1030F000922449004FF000514FF08053FFF79CBDE0
:10310000DFF848C170B51CEA111E1EBF1CEA13157A
:103110009EEA0C0F95EA0C0F00F06F8081EA030421
:1031200023EA4C134EEAD47E21EA4C1141F480117B
:1031300043F48013AE44A1FB024CA0FB0365AEF147
:103140007F7E361955EB0C05A1FB034C4CF10003B7
:10315000A0FB021C16EB0C06654153F1000309426B
:1031600018BF46F0010613F4007F0BD14FEA03317C
:103170004FEA0530340341EA155140EA16506FF02A
:1031800003020AE04FEAC3214FEAC520F40241EAF4
:10319000555140EA56506FF0020202EB2E4201EB0D
:1031A000025585EACE710AD05FEA440C18BF24F0BC
:1031B000004450F1000041F1000120EAD47040F2D7
:1031C000FE7C624500D270BDA84214BF4FF080441F
:1031D0004FF04044002E08BF0024BEF1806FA8BF0E
:1031E000A1F1C041BDE8704080F282804FF0000044
:1031F00001F1C04101F0004170479EEA0C0F0CEA5A
:10320000131518BF95EA0C0F06D04FF0000081EAA5
:10321000030E0EF0004170BD00F01CF88900013E65
:1032200000F007B800F009B84FEA430C5FEA5C5CB5
:1032300008D081EA030100F05BB84FEA410C5FEA75
:103240005C5CF6D14FF00000014970470000FF07B9
:103250000000F87F0EF1020E2EF0030E5EF8046BF4
:10326000364205D4012A43EB030515F5001F12D899
:10327000012841EB010C1CF5001F0CD80ED14FEAC0
:10328000D17C15F5001F0CEB4C0C0CF1020C08BFA7
:103290004CEBD37C04E04FF0080C01E04FEAD37C08
:1032A0000CEB4C0526FA05F606F00706B6F1040C01
:1032B00006D20EEB860CBDE870404CF0010C604766
:1032C000DFE80CF0090B02024FF000414FF0000064
:1032D000A1F5002170BD19461046012851EB0104EB
:1032E00018BFD4F5001484BF002001F0004170BD68
:1032F0000808A0F500114FEA3101704753EA010CAC
:1033000017D41CF5801F58BFBCF5801F00F1068044
:103310008B4218BF704708BF8242704707D713F52A
:10332000801F58BF11F5801F19D48B4270479B42F4
:1033300070471CF5801F08D5BCF5801FF7D5994252
:1033400018BF704708BF904270474FF4001C1CEB39
:10335000430F38BF1CEB410F01D2994270470FB4A5
:103360000CBC03BCFFF7C1BE91EA030F10B581F09E
:1033700000413FF5B9AB83F0004300F009B800000D
:1033800010B591EA030F48BF83F000433FF5ACABA3
:10339000841A71EB030C07D212198CF0004C43EB2A
:1033A0000C03001B61EB0C01DFF8A4E14FEA1154A0
:1033B000A4EB135C1EEA430F18BF9EEA445F00F0C3
:1033C000B08023EA6E03524221EA0451C3EB6E033C
:1033D00038BF5B1EDCF1200E25D322FA0CFE10EB69
:1033E0000E0043FA0CFE41EB0E01CCF1200E03FA65
:1033F0000EFE10EB0E0051F10001CCF1200E29D48D
:1034000012FA0EF201EB0451BDE8104058BF7047AC
:10341000401C1CBFB2F1004F704700280CBF491C74
:1034200020F00100704712EB020E43EB030218BFBD
:103430004FF0010E4EEA4202ACF1200CDCF11E0E00
:1034400054D943FA0CFE10EB0E0051F1FF31CCF1D0
:103450001E0ED5D50EF1010E12FA0EFE404141EBC3
:10346000010101EB445C5FEA5C5C10D910EBDE709B
:1034700001EB045138BFBEF1004FBDE8104018BF4A
:10348000704700280CBF491C20F00100704730D263
:103490004FEAD42C11F5001124F400641BD0B1FACA
:1034A00081F20B3AA41AA41ED2F12003914030FA03
:1034B00003F31943904001EBCC71002C01EB045154
:1034C000BDE81040A8BF704701F1C0414FF00000B7
:1034D00001F000417047B0FA80F310FA03F100D117
:1034E00010BDE41A173C4805C90AE4E701EB045192
:1034F00010BD491001EB0451BDE810404FEA300007
:1035000002E04FF0000170474A0008BF0042F8D0C7
:10351000B2F5001F28BF704701F000414FF00000D6
:1035200070479EEA445F07D011EA5E0FBDE8104085
:1035300004BF002100207047BDE8104070B5FFF7C0
:1035400089FE00BF40DFF63E83F000411046704721
:103550000000E0FF0CF00F03092B08BF082000F06B
:1035600059800A2B0BD0082B18BF704708BF1CF0DE
:10357000400F0AD04FF000004FF0000170471CF0E0
:10358000400F18BF4FF0004070471CF0100F08D0DC
:1035900020F0704300F07F4242EAD3014FEA4370CB
:1035A000704700F0604021F07F4242EA000201F0E3
:1035B0007F4040EA727070474FF0FF0C4CF4E06CB3
:1035C0001CEA11531CBF9CEA030C9445C2BFDA42AB
:1035D00001EB02517047002B0DD0BCF1000F0FD052
:1035E000002A01F00041A4BF41F0E04141F07F61B9
:1035F0004FF00000704701F000414FF000007047AD
:1036000050EA01334FF09B0C18BF4CF0806C7FF4F4
:103610000BAB70471CF4801F11D01CF4E02F03D0BB
:103620006FEACC31490070474FF04050EFF3008211
:1036300022F0704242EA000282F3008870474FF0A5
:1036400000007047010202030405060708090A0B7F
:103650000C0D0E0F10100000000000000000010211
:10366000030406070809000000000102030400002B
:10367000000000000000F03F0000000000002440B7
:1036800000000000000059400000000000408F4092
:10369000000000000088C34000000000006AF840FD
:1036A0000000000080842E4100000000D012634121
:1036B0000000000084D797410000000065CDCD4197
:1036C000E036000800000020200000006C01000827
:1036D0000037000820000020B01900008801000811
:1036E0000100000010000000000000000024F400B1
:1036F00000000000000000000000000000000000CA
:0400000508000131BD
:00000001FF
