:020000040800F2
:10000000E80B0020CD010008471500082513000863
:1000100045150008C3030008A918000800000000E7
:100020000000000000000000000000004F15000864
:10003000C5030008000000004D1500085115000818
:10004000E7010008E7010008E7010008E7010008F0
:10005000E7010008E7010008E7010008E7010008E0
:10006000E7010008E7010008E7010008E7010008D0
:10007000E7010008E7010008E7010008E7010008C0
:10008000E7010008E7010008E7010008E7010008B0
:10009000E7010008E7010008E7010008E7010008A0
:1000A000E7010008E7010008E7010008E701000890
:1000B000E7010008E7010008E7010008E701000880
:1000C000E7010008E7010008E7010008E701000870
:1000D000E701000885180008911800089D1800081D
:1000E000E7010008E7010008E7010008E701000850
:1000F000E7010008E7010008E7010008E701000840
:10010000E7010008E7010008E7010008E70100082F
:100110002916000835160008E7010008E701000865
:10012000E7010008E7010008E7010008E70100080F
:1001300000F002F800F03AF80AA090E8000C8244BF
:100140008344AAF10107DA4501D100F02FF8AFF29C
:10015000090EBAE80F0013F0010F18BFFB1A43F0A5
:1001600001031847CC300000EC300000103A24BFE7
:1001700078C878C1FAD8520724BF30C830C144BF0C
:1001800004680C607047000000230024002500264E
:10019000103A28BF78C1FBD8520728BF30C148BFEA
:1001A0000B6070471FB51FBD10B510BD00F0CFF834
:1001B0001146FFF7F7FF02F013FA00F0EDF803B471
:1001C000FFF7F2FF03BC00F0F5F800000948804794
:1001D00009480047FEE7FEE7FEE7FEE7FEE7FEE729
:1001E000FEE7FEE7FEE7FEE704480549054A064B41
:1001F00070470000B515000831010008E80500202F
:10020000E80B0020E8070020E807002053EA020C72
:1002100000F069802DE9F04B4FF00006002B1FBF66
:10022000B3FA83F503FA05F424FA05F65E4012BF2B
:100230001643B2FA82F502FA05F4C5F120051EBF95
:1002400022FA05FC44EA0C04203556EA044C4FEA35
:10025000144418BF641C4FF000084FF0000990428E
:1002600071EB030C39D3002919BFB1FA81F701FAF8
:1002700007F6B0FA80F700FA07F6C7F120071EBFAD
:1002800020FA07FC46EA0C062037B6FBF4FCA7EB85
:100290000507103F07F01F0BCBF120060CFA0BFBF4
:1002A0002CFA06F644BFB3460026202FA4BF5E46B4
:1002B0004FF0000B5BEA060C08BF4FF0010B19EB87
:1002C0000B09ABFB027C48EB0608C01B06FB02CC0B
:1002D0000BFB03CC71EB0C01C1E70B460246414618
:1002E0004846BDE8F08B13B54FF000004FF0000119
:1002F000AFF30080BDE81C4070474FF0000200B52E
:10030000134694469646203922BFA0E80C50A0E838
:100310000C50B1F12001BFF4F7AF090728BFA0E8E6
:100320000C5048BF0CC05DF804EB890028BF40F8B2
:10033000042B08BF704748BF20F8022B11F0804FF4
:1003400018BF00F8012B704770477047704775461B
:1003500000F02CF8AE4605006946534620F0070031
:10036000854618B020B5FFF73FFFBDE820404FF0AD
:1003700000064FF000074FF000084FF0000B21F08F
:100380000701AC46ACE8C009ACE8C009ACE8C0095C
:10039000ACE8C0098D46704710B50446AFF3008045
:1003A0002046BDE81040FFF70ABF00000048704734
:1003B0008805002001491820ABBEFEE72600020098
:1003C0007047FEE7704772B6FEE700230380438064
:1003D0004160028170470089491CB1FBF0F200FBCB
:1003E000121080B2704770B50D4604464188FFF781
:1003F000F2FF608061680D5470BD00002DE9F05F70
:1004000090F821100024022903D0042181630124E3
:1004100085E001680A6822F00E020A6001680A6835
:1004200022F001020A603F4E3E4FB215DFF8F4C0E1
:10043000DFF8F090DFF8ECA0DFF8E8B0DFF8E4E0F8
:100440000168783F13011502ACF1640CA9F1500961
:10045000AAF13C0AABF1280BAEF1140E4FF4801850
:10046000B14227D9B9420ED0614512D049451DD0BD
:10047000514518D0594518D0714501D1424615E073
:10048000294EB14201D1012210E0274E1436B1426B
:1004900001D110220AE0244E2836B14206D0224A69
:1004A0003C32914201D11A4600E02A461E49091FFA
:1004B0000A602BE0B94213D0614517D0494522D0DC
:1004C00051451DD059451DD0714501D142461AE014
:1004D000B14202D14FF0807215E0134EB14201D10A
:1004E000012210E0104E1436B14201D110220AE070
:1004F0000D4E2836B14206D00B4A3C32914201D112
:100500001A4600E02A46074980394A60012180F8EE
:100510002110002180F82010416B01B1884720464E
:10052000BDE8F09F800002400804024070B5044618
:1005300000F010F90546601C02D00448007804441D
:1005400000F008F9401BA042FAD370BD040000205F
:100550002DE9F84FDFF8C891002409F1040A0AF1E7
:10056000040B23460F270BF1040ED1E00125A54013
:1005700006EA0502AA4276D1DFF8A8C14E68A6EBCA
:100580000C0866452BD00DDC032E34D005DC36B3C9
:10059000012E19D0022E2FD11BE0112E16D0122EB3
:1005A0002AD119E0B8F5881F19D006DCB8F5803FCC
:1005B00015D0B8F5801F1FD111E0B8F5001F0ED07F
:1005C000B8F5041F18D10AE0CB6815E0CB681B1DF5
:1005D00012E0CB6808330FE0CB680C330CE08B687B
:1005E0002BB1012B4FF0080303D0456104E0042335
:1005F00002E0056100E00023FF2A01D8064601E081
:1006000000F104064FEA840501D9A5F12005D6F8CA
:10061000008007FA05FC28EA0C0803FA05F548EA09
:100620000508C6F800804D68ED0070D53E4DAE69F6
:1006300046F00106AE61AD6924F0030605F0010540
:1006400000953A4D06EB050CDCF80850A607360F6E
:1006500007FA06F825EA0805DFF8D480404503D1FB
:100660004FF0000825E052E0DFF8C880404502D195
:100670004FF001081DE0DFF8C080404502D14FF087
:10068000020816E0DFF8B480404502D14FF00308BD
:100690000FE0DFF8AC80404502D14FF0040808E0DD
:1006A000DFF8A080404502D14FF0050801E04FF08F
:1006B000060808FA06F848EA0508CCF808804D68EC
:1006C000D9F80060ED034D4601D5164300E096438E
:1006D0002E604D68DAF80060AD03554601D516432B
:1006E00000E096432E604D68DBF80060ED025D4649
:1006F00001D5164300E096432E604D68DEF8006099
:10070000AD02754601D5164300E096432E60641C89
:100710000A681646E2407FF429AFBDE8F88F000072
:1007200000040140000011100010024000000140D0
:1007300000080140000C014000100140001401407D
:1007400000180140001C01408068084000D00120D2
:1007500070470000014880687047000004000020D6
:1007600002488168027811448160704704000020CB
:10077000074810B5016841F010010160032000F046
:1007800075F80F2000F006F800F024F8002010BDE6
:100790000020024070B50D4D04464FF47A71287860
:1007A000B1FBF0F00A490968B1FBF0F000F000FB82
:1007B00048B9102C07D200222146501E00F036F80E
:1007C00000206C6070BD012070BD0000040000209E
:1007D000100000200C4808B5816941F001018161D9
:1007E000816901F001010091C16941F08051C1614D
:1007F000C06900F0805000900448416821F0E06139
:1008000041F00071416008BD00100240000001404D
:10081000002809DB00F01F020121914040098000FF
:1008200000F1E020C0F8001170470000F0B40E4B5A
:100830001B680C46C3F30223C3F10705042D00D93E
:100840000425191D072901D2002300E0DB1E012623
:1008500006FA05F1491E214099409E40761E164039
:100860003143F0BC01F021B80CED00E0064900F086
:10087000070208684FF6FF03184040EA0220034AC7
:1008800010430860704700000CED00E00000FA051E
:10089000704700002DE9F0470F46050061D0434E38
:1008A000306800F00700B84209D2306820F0070035
:1008B00038433060306800F00700B84251D12868F2
:1008C0003B4C810712D5400703D5606840F4E060D7
:1008D00060602878000703D5606840F4605060606D
:1008E0006068A96820F0F000084360602878C007BD
:1008F00028D06868012810D02168022810D0890704
:1009000000292EDA616821F0030101436160FFF7DD
:1009100021FF804641F288390DE021688903EFE725
:100920008901EDE7FFF716FFA0EB0801494502D961
:100930000320BDE8F0876068696800F00C00B0EB48
:10094000810FEFD1306800F00700B8420BD9306852
:1009500020F0070038433060306800F00700B842EC
:1009600001D00120E5E72878400705D56068E968EF
:1009700020F4E060084360602878000706D56068CE
:10098000296920F4605040EAC100606000F03EF840
:100990006168084AC1F30311515CC8400649086008
:1009A00006480068FFF7F6FE0020C2E7002002407C
:1009B00000100240C4310008100000200800002090
:1009C00001490120C86470470000424204480549BB
:1009D00000684968044AC1F30221515CC84070476D
:1009E0001000002000100240D431000804480549DE
:1009F00000684968044AC1F3C221515CC84070478D
:100A00001000002000100240D431000812A185B06F
:100A10000FC98DE80F0014A0144A006804905168B3
:100A2000134801F00C03042B10D0082B0ED1C1F396
:100A30008343C9031DF803000AD5516804AAC1F312
:100A40004041515C0A4A5043B0FBF1F005B0704799
:100A500008494843FAE700000203040506070809AD
:100A60000A0B0C0D0E0F10100102000000100240C6
:100A700000127A0000093D0010B5044CA068000681
:100A800003D5FFF705FF8020A07210BD00100240C3
:100A90002DE9F84F040070D02078C04DC00749D030
:100AA0006868C0F38100012807D06868C0F381003E
:100AB000022809D16868C00306D52868800339D5A3
:100AC00060680028E7D035E06068B0F5803F0BD063
:100AD00010B1B0F5A02F11D0286820F48030286024
:100AE000286820F4802002E0286840F480302860E4
:100AF000606890B1FFF72EFE06460AE0286840F4D1
:100B000080202860F0E700BFFFF724FE801B6428E8
:100B100073D828688003F7D50CE0FFF71BFE064664
:100B200005E000BFFFF716FE801B6428F0D8286898
:100B30008003F7D420789A4E80074FF001094FF0D8
:100B4000000839D5686810F00C0F07D06868C0F34A
:100B50008100022809D16868C00306D4286880078C
:100B600014D52069012808D110E02069B0B1C6F879
:100B70000090FFF7EFFD074605E00AE1FFF7EAFD09
:100B8000C01B0228C4D828688007F7D52868616987
:100B900020F0F80040EAC10028600DE0C6F80080AF
:100BA000FFF7D8FD074604E0FFF7D4FDC01B02287D
:100BB00023D828688007F7D4207800072CD57948F7
:100BC000A169D9B1C0F80090FFF7C4FD074604E061
:100BD000FFF7C0FDC01B02280FD8686A8007F7D551
:100BE00071484FF4FA510068B0FBF1F0009000BF7B
:100BF0000098411E0091FAD20EE080E0C0F800801B
:100C0000FFF7A8FD074604E0FFF7A4FDC01B02287C
:100C100075D8686A8007F7D42078400760D5E869FE
:100C20000027C00008D4E86940F08050E861E86916
:100C3000012700F0805000905C480168C90513D47A
:100C40000168834641F480710160FFF783FD8246AD
:100C500006E000BFFFF77EFDA0EB0A0064284ED837
:100C6000DBF80000C005F5D5E06801280AD008B11E
:100C7000052813D0286A20F001002862286A20F095
:100C8000040002E0286A40F001002862E06841F2B6
:100C9000883B98B1FFF75EFD82460BE0286A40F082
:100CA00004002862EEE700BFFFF754FDA0EB0A0145
:100CB00059455AD8286A8007F6D50CE0FFF74AFD57
:100CC000824605E0FFF746FDA0EB0A0159454CD8E6
:100CD000286A8007F6D41FB1E86920F08050E861E7
:100CE000E06988B36968C1F38101022944D0022810
:100CF000C6F8608004D0FFF72DFD044638E034E0EC
:100D0000FFF728FD074604E0FFF724FDC01B02287B
:100D10002BD828688001F7D4206AB0F5803F05D130
:100D20006868A16820F4003008436860D4E90801CD
:100D30000843696821F4741108436860C6F860903C
:100D4000FFF708FD044606E025E000BFFFF702FDBF
:100D5000001B022809D828688001F7D51BE000BFD6
:100D6000FFF7F8FC001B022802D90320BDE8F88F2A
:100D700028688001F4D40EE00128F7D06868226A60
:100D800000F48031914204D1616A00F4701088420D
:100D900001D00120EAE70020E8E70000001002404F
:100DA00000004242800442421000002000700040D7
:100DB00010B5401EB0F1807F01D3012010BD4FF06F
:100DC000E02460610F21601700F06FFD0020A0613A
:100DD00007202061002010BD7047000070B5026838
:100DE00004461068D168536910F00F0F50D003F01B
:100DF000010501F4907635435DD0C20705D0CA05E0
:100E000003D5E26B42F00102E263420705D5DA073F
:100E100003D0E26B42F00202E263820705D5DA07F3
:100E200003D0E26B42F00402E263020705D5DA0761
:100E300003D0E26B42F00802E263E26B002A33D097
:100E4000800604D5880602D5204600F00FFC2068F5
:100E50004069E16BC0F38010090700D428B3204635
:100E600000F0F6FB2068416949061AD5416921F076
:100E700040014161606BA0B11B494163606BFFF7AA
:100E8000BDFA002810D0606B416BBDE87040084788
:100E9000830610D58B060ED52046BDE8704000F0C5
:100EA000E5BB2046FFF798FF70BD2046FFF794FF93
:100EB0000020E06370BD030606D50B0604D520466E
:100EC000BDE8704000F07ABC4006F3D54806F1D585
:100ED000D168204621F04001D160202184F83910EA
:100EE00000F01FFA70BD00004116000870B5040044
:100EF00004D094F83900002510B106E0012070BD3F
:100F000084F83850204600F023F8242084F8390073
:100F10002068C16821F40051C160204600F0F2FB56
:100F20002068016921F4904101612068416921F044
:100F30002A0141612068C16841F40051C160E56344
:100F4000202084F8390084F83A00002070BD0000A9
:100F5000F0B585B000240094019402940394D0F875
:100F600000C0714971486F4F0D1502220323C6144A
:100F7000BC4524D1CF6947F40027CF61CF6907F47E
:100F8000002704978F6947F010078F61896901F086
:100F90001001CDE90331CDE9005269460546FFF75E
:100FA000D7FACDE90064694628460294FFF7D0FAE3
:100FB000002211463420FFF739FC342030E0DFF8FE
:100FC00070E10427F4452FD1CD6945F48015CD613A
:100FD000CD6905F4801504958D6945F010058D6186
:100FE0008D6905F0100504958D6945F020058D612A
:100FF0008969039301F020010491B902CDE900123F
:101000006946FFF7A5FACDE900746946494802949C
:10101000FFF79EFA002211463520FFF707FC352026
:10102000FFF7F6FB05B0F0BDDFF80CE14348F445EF
:1010300025D18E6946F480468E618E6906F480461D
:1010400004968E6946F004068E618969039301F067
:10105000040104914115CDE9001269460646FFF7E7
:1010600077FACDE90054694630460294FFF770FAEA
:10107000002211462520FFF7D9FB2520D0E7DFF815
:10108000C0E0F44525D1CD6945F40035CD61CD6989
:1010900005F4003504958D6945F004058D61896975
:1010A000054601F00401CDE90331CDE9007269463E
:1010B000FFF74EFA0820CDE900046946284602945D
:1010C000FFF746FA002211462620FFF7AFFB262045
:1010D000A6E71C488445A5D1C86940F48020C861B2
:1010E000C86900F480200490886940F00800886195
:1010F0008869CDE9005200F00800CDE90330124DB7
:1011000069462846FFF724FACDE900646946284677
:101110000294FFF71DFA002211462720FFF786FBF5
:1011200027207DE7004C00400010024000100140E5
:101130000050004000140140003801400008014008
:101140000044004000480040000C014090F83A3054
:10115000202B22D1F9B1F2B190F83830012B1CD0FC
:1011600081628285C2850021C163222280F83A20F3
:1011700080F838100168CA6842F48072CA60016859
:101180004A6942F001024A610068C16841F02001E9
:10119000C1600020704701207047022070470000A6
:1011A00010B500682649274C88420CD101222146FF
:1011B0002548FFF7CBFF254800F0B5F800283ED1C1
:1011C0002178224837E0224988420FD11D49012267
:1011D000491C2048FFF7BAFF1C480C3000F0A3F868
:1011E00000282CD1194861780C3024E01A49884233
:1011F0000FD114490122891C1848FFF7A7FF134893
:10120000183000F090F8002819D11048A178183053
:1012100011E01349884212D10A490122C91C114820
:10122000FFF794FF0948243000F07DF8002806D12C
:101230000648E1782430BDE81040FFF7D4B810BD6F
:1012400000380140140000209800002058050020BC
:101250000048004018010020004C00401800002009
:1012600000500040580000202DE9F843044690F853
:1012700039001F4616460D46202850D1A5B19EB113
:1012800094F8380001284AD0012084F838004FF043
:101290000008C4F83C80212084F83900FFF75AFA8E
:1012A000A6848146E68426E00120BDE8F883E08C30
:1012B000401EE084A0684B46B0F5805F4FF000020E
:1012C0004FF080012046009703D000F0A8FAE8B95B
:1012D0000DE000F0A4FAC8B928882168C0F308001E
:1012E0004860206908B16D1C05E0AD1C03E0216871
:1012F00015F8010B4860E08C0028D8D14B4600223D
:1013000040212046009700F08AFA08B10320CCE77C
:10131000202084F8390084F838800020C5E70220B6
:10132000C3E77047FEE710B504464188FFF753F85E
:101330002188884201D1012010BD002010BD70B568
:101340000C460546FFF700FA01280AD01E20FFF7D9
:10135000EDF821462846FFF7F7F9012801D0FF20D4
:1013600070BD002070BD000010B500F00BF80449FE
:101370000A78904201D0087010BD002010BD000016
:101380000000002010B54FF4005421460648FFF736
:10139000D6FF08B1012010BD21460448FFF7CFFF5A
:1013A0000028F8D0022010BD0010014000140140B8
:1013B00030B585B000241A480194029403948169E1
:1013C00041F010018161816901F01001049181698E
:1013D00041F004018161816901F004010491816996
:1013E00041F008018161816901F00801049181697E
:1013F00041F02001816180694FF4005500F0200028
:101400000490694600950748FFF7A2F8CDE900541B
:10141000694605480294FFF79BF805B030BD00000F
:101420000010024000100140001401400C4810B5AB
:101430000A4901604FF4E1314160002181600C22D2
:10144000C160C0E904128161C161FFF74FFD00284E
:1014500003D0BDE81040FEF7B6BF10BD004C004001
:10146000180000200C4810B50A4901604FF4E13122
:101470004160002181600C22C160C0E904128161D9
:10148000C161FFF733FD002803D0BDE81040FEF72F
:101490009ABF10BD00500040580000200C4810B505
:1014A0000A4901604FF4E1314160002181600C2262
:1014B000C160C0E904128161C161FFF717FD002816
:1014C00003D0BDE81040FEF77EBF10BD00380140DC
:1014D000980000200C4810B50A4901604FF4E13132
:1014E0004160002181600C22C160C0E90412816169
:1014F000C161FFF7FBFC002803D0BDE81040FEF7F8
:1015000062BF10BD00440040D80000200C4810B558
:101510000A4901604FF4E1314160002181600C22F1
:10152000C160C0E904128161C161FFF7DFFC0028DE
:1015300003D0BDE81040FEF746BF10BD0048004094
:1015400018010020FEE7FFF797FAFEE770477047A3
:10155000FFF706B930B58FB028216846FEF7CDFEFB
:1015600014210AA8FEF7C9FE01210804CDE90010E4
:101570000024029402250491CDE907504FF4E010B5
:1015800009906846FFF784FA08B172B6FEE70F20AB
:10159000CDE90A054FF48060CDE90C4002210AA88C
:1015A0000E94FFF777F908B172B6FEE7FFF708FA75
:1015B0000FB030BD0D48016841F001010160416884
:1015C0000B4A1140416001680A4A114001600168FC
:1015D00021F480210160416821F4FE0141604FF453
:1015E0001F0181600449C003086070470010024079
:1015F0000000FFF8FFFFF6FE08ED00E0074910B518
:101600004FF4807201F58060FEF7DFFEBDE8104008
:10161000012203490348FFF799BD0000580100204B
:1016200014000020980000200148FFF7D7BB0000FD
:10163000180000200148FFF7D1BB0000580000202F
:1016400010B5406A0021C185C184FFF7C5FB10BDFC
:101650000168CA6822F49072CA6001684A6922F07F
:1016600001024A61202180F83A10704710B590F8C5
:101670003A10222901D0022010BD8168B1F5805FA7
:1016800011D00169002901681FD0496801F07F036A
:10169000816A4A1C82620B70C18D491E0904090CC3
:1016A000C18518D02BE00269816A002A026852685D
:1016B00005D0D2B20A80816A491C8162ECE7C2F38C
:1016C00008020A80816A891CF7E74A68816A4B1C14
:1016D00083620A70E0E70168CA6822F02002CA60EB
:1016E0000168CA6822F48072CA6001684A6922F0FF
:1016F00001024A61202180F83A10FFF751FD0020D5
:1017000010BD00002DE9F041044600680169E2685F
:1017100021F44051114301612169A06808436169C6
:1017200008432168CA6841F20C639A430243CA60C5
:1017300020684169A26921F44071114341611E4949
:10174000206864253226884202D1FFF74FF901E074
:10175000FFF73CF900EBC00101EB001160686FF08E
:1017600018078000B1FBF0F2B2FBF5F2B1FBF0F329
:101770007A4303EB8202B1FBF0F306EB0212B2FBF9
:10178000F5F2B3FBF5F302F0F00202EB0312B1FB4A
:10179000F0F3B1FBF0F0B0FBF5F0784303EB800021
:1017A00006EB0010B0FBF5F0216800F00F001044CC
:1017B0008860BDE8F08100000038014090F83910E1
:1017C000212901D0022070478168B1F5805F016A4C
:1017D0000BD04A1C0262026809785160C18C491E14
:1017E0000904090CC1840ED017E009880268C1F30E
:1017F0000801516001690029016A02D0491C016297
:10180000ECE7891CFBE70168CA6822F08002CA6025
:101810000068C16841F04001C160002070472DE9B7
:10182000F041984617460E460446069D1DE0681C8A
:101830001BD02DB1FEF78EFFA0EB0800A84214D9F3
:101840002068C16821F4D071C1602068416921F02D
:1018500001014161202084F8390084F83A00002019
:1018600084F838000320BDE8F0812068006836EA7B
:10187000000004D00020B842D9D00020F3E70120B6
:10188000F9E700000148FFF7A9BA0000980000201E
:101890000148FFF7A3BA0000D80000200148FFF775
:1018A0009DBA000018010020FEE70907090E002874
:1018B00004DB00F1E02080F80014704700F00F0016
:1018C00000F1E02080F8141D704770B50446002533
:1018D0006FF02F0608E02068411C2160007805EBBE
:1018E000850106EB410145182068007800F0E4FA14
:1018F0000028F0D1284670BD2DE9FF4F89B016AE03
:10190000DDF8688096E8B0084FF0FF3622462B4697
:101910002046294601F0B4F80ED13246AC4B2046A1
:10192000294601F0ABFA07D332466FF48013204604
:10193000294601F069F90BD2CDF810808DE8B00886
:1019400009AE96E80F0000F06FF90DB0BDE8F08F1A
:10195000002213462046294601F056F904D2012000
:1019600085F00045079001E0002007905FEA4850AD
:1019700000D406279749C5F30A56C5F3130C204631
:101980004CEA01010022944BA6F2FF3601F0B8FAAE
:10199000924A934B01F074F981468A46304601F031
:1019A00008F9904A904B01F06BF9904A904B00F087
:1019B00053FE4A46534600F04FFE01F09DF806469E
:1019C00001F0F7F881468B4A8B4B019101F058F9F1
:1019D00000228A4B00F040FE01F08EF8059001F0E5
:1019E000E8F8874A874B01F04BF982460391484655
:1019F000854A864B019901F043F95246039B01F059
:101A00007FFA81468A4602460B4601F039F9CDE954
:101A10000310059840F2FF31000500EB01500290E1
:101A2000DDE9031000227A4B00F0D2FE0022794B50
:101A300000F012FE02460B46DDE9031000F0C8FE7E
:101A40000022754B00F008FE02460B46DDE903104C
:101A500000F0BEFE059108904A46534600204FF024
:101A6000804101F04DFA059B089A00F0F5FDCDE9A3
:101A7000031001224846514601F05EFBDDE90332C6
:101A800000F0A6FE0022534B00F0E6FD0022029B70
:101A900001F0F6F881468A4602460B460091029014
:101AA0002046294601F0B0F808D20022594B48469A
:101AB0005146761E00F08CFE0091029006F1630004
:101AC000C72801D2042000E0052081465FEA0850C3
:101AD0001ED5524A524B2046294601F0CFF912D862
:101AE0000022504B2046294601F08EF80BD2B74217
:101AF00002DDBF1B7F1E00E000274FF0000948F405
:101B000080684E4604E01FB15FEA485000D57F1E52
:101B1000CB4502D9ABEB090000E0002082465FEA2A
:101B2000887004D5B9F1000F01D04FF0000A3EB122
:101B300020462946009B029A00F04AFE04460D46C4
:101B40000B980890079808B185F0004528F40060CC
:101B5000CDE903A08DE8B0000DF1240C9CE80F0046
:101B600000F062F80446B9F1000F2FD0651C224640
:101B70005FEA886001D5452000E06520DDE9094184
:101B80000C9BA04702AC0523A9F1010200210A2009
:101B900084E80F00F00F002E00DA7642CDE90060F5
:101BA000DDE909012A460C9B00F0FFF904465FEAD3
:101BB000887007D40AE02246DDE90951641C202020
:101BC0000C9BA8470898211A5945F4D32046BCE637
:101BD000FFFFEF7F0000F03F0000F83F61436F63BD
:101BE000A787D23FFB799F501344D33FB3C8608B84
:101BF000288AC63F71A379094F930A400000E03F4D
:101C0000EF39FAFE422EE63F1655B5BBB16B0240E6
:101C100000002C4000002440000018402D431CEB25
:101C2000E2361A3F80842E412DE9FF4F8DB01AAC69
:101C3000DDE91D9794E860044FF0FF3800242A4640
:101C400033462846314600F01BFF02D003218FA205
:101C500009E042466FF480132846314600F0D4FF75
:101C600009D204218AA2CDE90021CDE902970DAC69
:101C700094E80F0007E14246874B2846314601F0C1
:101C8000FDF807D2790702D5042184A2EBE70321EE
:101C900084A2E8E70022844B2846314601F0EEF8A2
:101CA00006D30022814B2846314600F0ADFF0BD20F
:101CB0008DE86004CDE903970DAC94E80F00FFF7C1
:101CC0001BFE11B0BDE8F08F0020024603460290D3
:101CD0002846314600F098FF03D2012086F00046E6
:101CE000029078050AD44FF0060A07E005A83021D3
:101CF0000155641CAAF1010A202C04D2DFF8B0813E
:101D0000BAF1090FF2D82846314600F0F5FE8346B5
:101D100000F04FFF2A46334601F0E6F808EBCA030D
:101D20000393D3E9002300F0ABFFCDE9000100F0FD
:101D300013FF804600F054FFDDE9002301F0D4F8E2
:101D400000225C4BCDE9000101F098F80FD208F1B8
:101D50000100804600F044FF039BD3E9002301F01B
:101D60008DF813D84FF000080BF1010B0EE0DDE900
:101D7000000100224F4B00F047FF07D308F001009D
:101D8000401E10EA080F01D108F10108BAF1000065
:101D900002D00A2205A92AE0584600F00AFF2A4686
:101DA000334601F0A1F8DFF80C8105460E4600220B
:101DB000434601F063F806D90022434628463146DF
:101DC00001F05CF821D25FEACB701ED00BF1010B61
:101DD0001BE000BFB8FBF2F502FB158330330B5557
:101DE000B8FBF2F3401E641C5FEA030805D0202C08
:101DF000F0D31AE00A55641C00E03022202C14D2E3
:101E0000401EF7D22E200855641C0A2005A9202C5C
:101E10000BD29BFBF0F300FB13B230320A559BFB55
:101E2000F0F2641C5FEA020BF1D1B80714D4F80792
:101E300012D0B9F1000F06D0029907F00C00084348
:101E400001D0A9F10109302005A94C4504D2202C6C
:101E500012D20855641CF8E7202C0DD2029808B164
:101E60002D2106E0780701D52B2102E0380703D5A4
:101E7000202105A80155641C05A903978DE81202CD
:101E80000DAD95E80F0000F016F91AE76E616E00CF
:101E9000666E692D00000000FFFFEF7F666E692B04
:101EA00000000000666E690065CDCD4165CDCDC1F5
:101EB000E03100080000E03F3038092801D8012057
:101EC0007047002070472DE9FF5F91468A468346A0
:101ED000DDE90E20DDE91341DDE91167DDF840C0E1
:101EE0005FEA81784FF030051AD45CB15FEAC178BF
:101EF00008D001F00C0858EA0C0803D0641E01E079
:101F00001554401CB84204D22028F9D301E01554DE
:101F1000401C5FEAC17803D0A04201D22028F6D34A
:101F20005FEAC16825D55FEA41580AD448B1B84292
:101F300001D0A04205D1401E03D0102E03D1401E77
:101F400004E0102E02D0022E0AD00EE08E0603D43A
:101F500020281ED2782606E020281AD2582602E031
:101F6000202816D262261654401C202811D215545F
:101F7000401C20280DD2BCF1000F01D02D2506E019
:101F80004D0701D52B2502E00D0702D5202515545C
:101F9000401CCDE90020CDE902414A465146584651
:101FA00000F089F804B0BDE8F09F2DE9F04F8FB044
:101FB00099468B46DDE91818DDE91C63DDE91A470F
:101FC00092468646002209B923F01003580507AD52
:101FD00000D5C9B1B1FBF4F004FB1010C0B20A285F
:101FE00001D2303009E05FEA836C02D54FF0410C3A
:101FF00001E04FF0610C60440A38B1FBF4F1A854E1
:10200000521C09B1202AE5D3CDF80880CDE905633B
:10201000CDE90052CDE903474B465246594670463A
:10202000FFF751FF0FB0BDE8F08F2DE9FF4F8FB0E4
:102030001CACDDE9239594E8030820AC94E8C004C7
:10204000002450EA010201D125F010056A050DF1C6
:102050001C0802D550EA010217D032463B46FEF773
:10206000D5F8D2B20A2A01D2303206E0AB0601D549
:10207000412300E061231A440A3A08F80420641C52
:1020800050EA010201D0202CE7D3CDE90084CDF83D
:1020900008B0CDE90595CDE9036A0FAF97E80F00C9
:1020A000FFF711FF13B0BDE8F08F002801D000F05A
:1020B00039B8704770472DE9FF5F80460FA8DDF8FB
:1020C00038B090E8C004144691465FEA8A7014D193
:1020D000354607E02246641C2020C446039B019934
:1020E000E0476D1CBD42F5D307E02246641C761E16
:1020F000039B1BF806000199C047002EF5D15FEA4B
:102100008A7006D409E02246641C2020039B0199B2
:10211000C047A4EB0900B842F5D304B02046BDE89F
:10212000F09F000001B54FF6FF7301226946024897
:10213000FFF79AF808BD0000980000202DE9FF4F36
:1021400089B005460A9800249246002800D1F74D30
:1021500075E1252804D02246641C53460A9933E2CF
:10216000491C4FF0000808460C9101782B2919D022
:1021700004DC202919D0232904D119E02D290ED0FF
:10218000302909D00026C8B2FFF796FEB0B10CA8DE
:10219000FFF79BFB06461FE048F001010AE048F00C
:1021A000020107E048F0040104E048F0080101E002
:1021B00048F01001401C88460C90D6E70C98017836
:1021C0002A2909D1169940C91691002E02DA48F041
:1021D00002087642401C0C900C984FF0000B0178DE
:1021E0002E2919D1401C0C9048F480680078FFF724
:1021F00063FE20B10CA8FFF768FB83460CE00C9A45
:1022000010782A2808D1169901C91691002800DCF7
:102210000020521C83460C920C9801786C290AD03D
:1022200004DC68290FD06A2919D129E074292AD041
:102230007A2914D127E0401C0C90017848F480786A
:102240006C291DD00BE0401C0C90017848F08008F0
:10225000682904D148F04001401C88460C90007861
:1022600065280CD019DC582829D00FDC252879D016
:10227000452804D0462876D047287FF46CAFFFE08D
:1022800048F40071E8E748F48071E5E7622816D069
:10229000632869D06428F0D111E0702877D008DC79
:1022A000662860D0672873D0692808D06F28E4D1E9
:1022B00005E073286DD0752801D07828DDD1782805
:1022C00009D0582807D06F2831D0622831D00A2190
:1022D00028F0100802E0102158282CD0692803D0DB
:1022E000642801D028F00C085FEA485201D528F094
:1022F0000108692822D0642820D05FEA88506CD574
:10230000169804ABC01D002283E806080292CDE9AE
:10231000076820F007005346F0E80212CDE90012EA
:102320001690224628460A99FFF77FFEC7E008214B
:10233000D8E70221D6E748F02008D3E75FEA8850C3
:1023400028D5169804AFC01D20F00703F3E8020259
:102350001693002387E80A08CDE90768002A04DA03
:10236000012103E02BE173E0ABE0002100230291A7
:1023700019461B1A914101DA114603E0002140423F
:1023800061EB020153462246CDE90001CAE70CE1A8
:1023900076E0BDE05FEAC85004D5169A01CA0FE0A6
:1023A000404215E05FEA486003D5169A12F8040B24
:1023B00006E05FEA0860F0D5169A32F8040B00B226
:1023C0001692CDE9021BCDE90468C10F0028E7DDB4
:1023D00053462246CDE9000129E05FEAC8500CD5FA
:1023E000CDE9021BCDE9046800211698534604C8C4
:1023F000CDE900211690224619E05FEA486003D536
:10240000169A12F8040B08E0169A5FEA086003D5E2
:1024100032F8040B80B200E001CA1692CDE9021B2B
:102420000021CDE90001CDE9046853462246284643
:102430000A99FFF7BAFD42E00C98401C0C900C99E9
:10244000087800287FF485AE544571D22246BFE05B
:10245000462801D148F020081698CDF808B0C01DD4
:10246000CDE9036820F007005346F0E80212CDE9F9
:1024700000121690224628460A99FFF7D5FB1EE067
:10248000672801D0472801D148F40068452801D0C9
:10249000472801D148F020081698CDF808B0C01D93
:1024A000CDE9036820F007005346F0E80212CDE9B9
:1024B00000121690224628460A99FFF71DFA044694
:1024C000BAE701275FEA887006D509E02246641C56
:1024D000534620200A99A84738467F1CB042F5D3BE
:1024E00016992246641C11F8040B169153460A995A
:1024F000A8475FEA887006D49EE72246641C5346CC
:1025000020200A99A84738467F1CB042F5D393E7AC
:10251000169850F8049B16904B46BBF1000001D072
:10252000014601E04FF0FF31484603E0B5200008C6
:102530004CE0401C02780AB1491EFAD2C71A5FEA81
:10254000485003D558465F4500D307465FEA887078
:1025500006D512E02246641C534620200A99A8475B
:1025600038467F1CB042F5D307E000BF224609F190
:102570000109641C53460A99A84799F8000028B13C
:102580005FEA4851F2D5BBF1010BEFD25FEA8870E8
:1025900006D451E72246641C534620200A99A847D6
:1025A00038467F1CB042F5D346E7082148F02100A9
:1025B0001023CDE90410CDE9023B002115E72246A6
:1025C000641C534625200A99A84735E7AAF1010261
:1025D000534600200A99A8470DB02046BDE8F08F69
:1025E000FEF7C6F8FEF7B6FFFEF7E2FEFEF756FF6F
:1025F000FEF71CFFFEF736FFFEF76CFFFEF786FFC7
:10260000FEF7FCFF05A000F017F800BFFEF7ACFED8
:102610000100FBD004A000F00FF8F7E7D6D0C4CF3C
:10262000B4F3D1A70D0A00004B45592564BCFCB09A
:10263000B4CFC20D0A0000000FB41CB505A800906D
:102640004FF0FF3201A90348049BFFF777FD1CBC44
:102650005DF814FBAB20000810B591EA030F48BFEA
:1026600083F0004300F15484841A71EB030C05D20B
:10267000121943EB0C03001B61EB0C01DFF824E1A2
:102680004FEA1154A4EB135C1EEA430F18BF9EEAF5
:10269000445F73D023EA0E03DCF1200E21EA0451DB
:1026A00043F4801332D322FA0CFE10EB0E0023FA0F
:1026B0000CFE41EB0E01CCF1200E03FA0EFE10EBE6
:1026C0000E0051F10001B1F5801FCCF1200E32D285
:1026D00001EB045112FA0EF2BDE8104058BF7047EA
:1026E000401C38BF5FEA420218BF7047002814BF81
:1026F00020F0010041F100014FEA410313F5001FF2
:1027000038BF7047A1F1C04100F0B2BB012A43EBD2
:102710000302ACF1200CDCF11F0E32BF4FF0000EB3
:1027200023FA0CF310EB030041EB0451B4EB115FFF
:10273000D0D0A1EB045101F5801149085FEA3000C7
:1027400001EB04510ED350F1000038BF12FA0EFE17
:1027500008D1BDE81040C9E7401C38BF5FEA42021B
:10276000CAD1C3E7BDE810404FEA410313F5001F8B
:1027700038BF7047A1F1C04100F07ABB9EEA445FC8
:1027800008D011EA5E0FBDE8104004BF01F000411F
:1027900000207047BDE8104070B500F01BFB00BF83
:1027A00064FBBE3E0000E0FF02494FF0000000F075
:1027B00091BC00BF0000F87F491058BFC1F14041F3
:1027C0005B1058BFC3F140438B42EFF3008070476A
:1027D0002DE9C04130B4DFF8A0C23CEA111418BFA3
:1027E0003CEA131400F0EC8081EA03051CEA1114A2
:1027F00044EAD57418BF1CEA131500F0C780A4EB97
:1028000005044FF0004545EAC12145EAC32341EAEA
:10281000505143EA525304F17F74994204F5003455
:102820004FEAC0204FEAC22208BF904200F09C80CD
:102830004FEA13650FF24016765D4FEA134506FB2B
:1028400005F7C7F1807706FB07F74FEAD737A7FBF5
:1028500003687642C8F58038A7FB06CE38BFA8F1DA
:10286000010807FB08E64FF0000EA6FB028CE6FB12
:1028700003CEDCF1000CCEF1004E38BFAEF1010EFC
:10288000A6FB0C584FF000074FF00005E6FB0E8743
:10289000A1FB08C6A0FB07CE16EB0E0645F100050E
:1028A000E1FB076515F1E04E7EBFA4F580345FEAD9
:1028B00046066D4116F1800745F100054FEA1727DE
:1028C0004FEA066647EA0567A6F1DE46B6F1805F85
:1028D0004FEA15251FD9384624F0010C05EBC471C9
:1028E000BCF1FE6F01EB0C1102D8F0BCBDE8008119
:1028F00024425CBF01F5801E9EEAC47F02D4F0BC76
:10290000BDE80081244238D4F0BCA1F1C041BDE84B
:10291000004100F0ADBA4FEAD22242EA43524FEAF8
:10292000D323A7FB02864FEAD02040EA415007FBA1
:1029300003661EEA0E0F4FEAD12105FB026658BF5F
:10294000A6EB0056B6EB00564FEA520E4EEAC37E97
:1029500018EB0E0E56EB530EBDD518EB02085E4178
:102960007F1C55F10005B6E74FF480154FF00007C6
:102970004FF000064FF00008ADE7F0BC4FF000004C
:1029800001F1C04101F00041BDE8008111EA0C1FD6
:102990000CEA131500D00CE013EA0C1F00F02580A0
:1029A0004FF00000F0BC81EA030101F00041BDE8F6
:1029B0000081F0BCBDE8004181EA030100F058BA93
:1029C000F0BCBDE8004170B500F004FA097EFC3EA1
:1029D00000F007B881EA03014FF0000001F0004168
:1029E000704781EA030100F043BAF0BCBDE8004142
:1029F0004FF0000021497047FFFDFBF9F7F5F4F2B5
:102A0000F0EEEDEBE9E8E6E4E3E1E0DEDDDBDAD889
:102A1000D7D5D4D3D1D0CFCDCCCBCAC8C7C6C5C4E7
:102A2000C2C1C0BFBEBDBCBBBAB9B8B7B6B5B4B3FE
:102A3000B2B1B0AFAEADACABAAA9A8A8A7A6A5A4E9
:102A4000A3A3A2A1A09F9F9E9D9C9C9B9A999998AD
:102A50009797969595949393929191908F8F8E8E50
:102A60008D8C8C8B8B8A89898888878786858584DD
:102A700084838382828181800000FF070000F87FC9
:102A800051EA030C17D41CF5801F58BFBCF5801FFA
:102A900000F10680994218BF704708BF9042704706
:102AA00007D711F5801F58BF13F5801F19D499421D
:102AB0007047894270471CF5801F08D5BCF5801F00
:102AC000F7D58B4218BF704708BF824270474FF45A
:102AD000001C1CEB410F38BF1CEB430F01D28B4293
:102AE000704770B500F076F9922449004FF000511C
:102AF0004FF08053FFF760BE4FEA41034FEA535354
:102B0000A3F58063D3F11E03C8BFD3F1210C0CDD04
:102B10004FF0004242EAC12242EA505232FA03FC2C
:102B20008CEAE17CACEBE1707047102BC4BF002055
:102B3000704703F5787CBCF1FF3F04D06FF0004292
:102B400082EA2100704770B500F044F94992248070
:102B500000207047F2E700004FEA1153A3F58063AD
:102B6000D3F11E03A8BFD3F1200C08DB4FF00042C5
:102B700042EAC12252EA505232FA03F07047094247
:102B80000BD4102BC4BF0020704703F5787CBCF138
:102B9000FF3F05D04FF0FF3070474FF00000704707
:102BA00070B500F017F900BF4992248000207047EB
:102BB000F0E710F0004248BF4042B0FA80F310FA4C
:102BC00003F10AD0C3F11D0303F580634FEA4150BE
:102BD00002EB035202EBD12170474FF00000704727
:102BE000B0FA80F310FA03F10AD0C3F11D0303F524
:102BF00080634FEA41504FEA035202EBD121704704
:102C00004FF000007047000051EA030C17D41CF588
:102C1000801F58BFBCF5801F00F10680994218BF85
:102C2000704708BF9042704707D711F5801F58BF03
:102C300013F5801F19D499427047894270471CF5DB
:102C4000801F08D5BCF5801FF7D58B4218BF704791
:102C500008BF824270474FF4001C1CEB410F38BF85
:102C60001CEB430F01D28B42704770B500F0B2F8F5
:102C7000922449004FF000514FF08053FFF79CBD64
:102C8000DFF848C170B51CEA111E1EBF1CEA1315FF
:102C90009EEA0C0F95EA0C0F00F06F8081EA0304A6
:102CA00023EA4C134EEAD47E21EA4C1141F4801100
:102CB00043F48013AE44A1FB024CA0FB0365AEF1CC
:102CC0007F7E361955EB0C05A1FB034C4CF100033C
:102CD000A0FB021C16EB0C06654153F100030942F0
:102CE00018BF46F0010613F4007F0BD14FEA033101
:102CF0004FEA0530340341EA155140EA16506FF0AF
:102D000003020AE04FEAC3214FEAC520F40241EA78
:102D1000555140EA56506FF0020202EB2E4201EB91
:102D2000025585EACE710AD05FEA440C18BF24F040
:102D3000004450F1000041F1000120EAD47040F25B
:102D4000FE7C624500D270BDA84214BF4FF08044A3
:102D50004FF04044002E08BF0024BEF1806FA8BF92
:102D6000A1F1C041BDE8704080F282804FF00000C8
:102D700001F1C04101F0004170479EEA0C0F0CEADE
:102D8000131518BF95EA0C0F06D04FF0000081EA2A
:102D9000030E0EF0004170BD00F01CF88900013EEA
:102DA00000F007B800F009B84FEA430C5FEA5C5C3A
:102DB00008D081EA030100F05BB84FEA410C5FEAFA
:102DC0005C5CF6D14FF00000014970470000FF073E
:102DD0000000F87F0EF1020E2EF0030E5EF8046B79
:102DE000364205D4012A43EB030515F5001F12D81E
:102DF000012841EB010C1CF5001F0CD80ED14FEA45
:102E0000D17C15F5001F0CEB4C0C0CF1020C08BF2B
:102E10004CEBD37C04E04FF0080C01E04FEAD37C8C
:102E20000CEB4C0526FA05F606F00706B6F1040C85
:102E300006D20EEB860CBDE870404CF0010C6047EA
:102E4000DFE80CF0090B02024FF000414FF00000E8
:102E5000A1F5002170BD19461046012851EB01046F
:102E600018BFD4F5001484BF002001F0004170BDEC
:102E70000808A0F500114FEA3101704753EA010C30
:102E800017D41CF5801F58BFBCF5801F00F10680C9
:102E90008B4218BF704708BF8242704707D713F5AF
:102EA000801F58BF11F5801F19D48B4270479B4279
:102EB00070471CF5801F08D5BCF5801FF7D59942D7
:102EC00018BF704708BF904270474FF4001C1CEBBE
:102ED000430F38BF1CEB410F01D2994270470FB42A
:102EE0000CBC03BCFFF7C1BE91EA030F10B581F023
:102EF00000413FF5B9AB83F0004300F009B8000092
:102F000010B591EA030F48BF83F000433FF5ACAB27
:102F1000841A71EB030C07D212198CF0004C43EBAE
:102F20000C03001B61EB0C01DFF8A4E14FEA115424
:102F3000A4EB135C1EEA430F18BF9EEA445F00F047
:102F4000B08023EA6E03524221EA0451C3EB6E03C0
:102F500038BF5B1EDCF1200E25D322FA0CFE10EBED
:102F60000E0043FA0CFE41EB0E01CCF1200E03FAE9
:102F70000EFE10EB0E0051F10001CCF1200E29D411
:102F800012FA0EF201EB0451BDE8104058BF704731
:102F9000401C1CBFB2F1004F704700280CBF491CF9
:102FA00020F00100704712EB020E43EB030218BF42
:102FB0004FF0010E4EEA4202ACF1200CDCF11E0E85
:102FC00054D943FA0CFE10EB0E0051F1FF31CCF155
:102FD0001E0ED5D50EF1010E12FA0EFE404141EB48
:102FE000010101EB445C5FEA5C5C10D910EBDE7020
:102FF00001EB045138BFBEF1004FBDE8104018BFCF
:10300000704700280CBF491C20F00100704730D2E7
:103010004FEAD42C11F5001124F400641BD0B1FA4E
:1030200081F20B3AA41AA41ED2F12003914030FA87
:1030300003F31943904001EBCC71002C01EB0451D8
:10304000BDE81040A8BF704701F1C0414FF000003B
:1030500001F000417047B0FA80F310FA03F100D19B
:1030600010BDE41A173C4805C90AE4E701EB045116
:1030700010BD491001EB0451BDE810404FEA30008B
:1030800002E04FF0000170474A0008BF0042F8D04C
:10309000B2F5001F28BF704701F000414FF000005B
:1030A00070479EEA445F07D011EA5E0FBDE810400A
:1030B00004BF002100207047BDE8104070B5FFF745
:1030C00089FE00BF40DFF63E83F0004110467047A6
:1030D0000000E0FF0CF00F03092B08BF082000F0F0
:1030E00059800A2B0BD0082B18BF704708BF1CF063
:1030F000400F0AD04FF000004FF0000170471CF065
:10310000400F18BF4FF0004070471CF0100F08D060
:1031100020F0704300F07F4242EAD3014FEA43704F
:10312000704700F0604021F07F4242EA000201F067
:103130007F4040EA727070474FF0FF0C4CF4E06C37
:103140001CEA11531CBF9CEA030C9445C2BFDA422F
:1031500001EB02517047002B0DD0BCF1000F0FD0D6
:10316000002A01F00041A4BF41F0E04141F07F613D
:103170004FF00000704701F000414FF00000704731
:1031800050EA01334FF09B0C18BF4CF0806C7FF479
:103190000BAB70471CF4801F11D01CF4E02F03D040
:1031A0006FEACC31490070474FF04050EFF3008296
:1031B00022F0704242EA000282F3008870474FF02A
:1031C000000070470000000000000000010203043E
:1031D00006070809000000000102030400000000C7
:1031E000000000000000F03F00000000000024404C
:1031F00000000000000059400000000000408F4027
:10320000000000000088C34000000000006AF84091
:103210000000000080842E4100000000D0126341B5
:103220000000000084D797410000000065CDCD412B
:103230005032000800000020180000006C01000857
:103240006832000818000020D00B00008801000838
:10325000000000000100000010000000000000005D
:083260000024F400000000004E
:0400000508000131BD
:00000001FF
